{
  "contracts/Marketplace.sol": {
    "Marketplace": {
      "abi": [
        {
          "inputs": [
            {
              "internalType": "uint256",
              "name": "_index",
              "type": "uint256"
            }
          ],
          "name": "buyProduct",
          "outputs": [],
          "stateMutability": "payable",
          "type": "function"
        },
        {
          "inputs": [],
          "name": "getProductsLength",
          "outputs": [
            {
              "internalType": "uint256",
              "name": "",
              "type": "uint256"
            }
          ],
          "stateMutability": "view",
          "type": "function"
        },
        {
          "inputs": [
            {
              "internalType": "uint256",
              "name": "_index",
              "type": "uint256"
            }
          ],
          "name": "readProduct",
          "outputs": [
            {
              "internalType": "address payable",
              "name": "",
              "type": "address"
            },
            {
              "internalType": "string",
              "name": "",
              "type": "string"
            },
            {
              "internalType": "string",
              "name": "",
              "type": "string"
            },
            {
              "internalType": "string",
              "name": "",
              "type": "string"
            },
            {
              "internalType": "string",
              "name": "",
              "type": "string"
            },
            {
              "internalType": "uint256",
              "name": "",
              "type": "uint256"
            },
            {
              "internalType": "uint256",
              "name": "",
              "type": "uint256"
            }
          ],
          "stateMutability": "view",
          "type": "function"
        },
        {
          "inputs": [
            {
              "internalType": "string",
              "name": "_name",
              "type": "string"
            },
            {
              "internalType": "string",
              "name": "_image",
              "type": "string"
            },
            {
              "internalType": "string",
              "name": "_description",
              "type": "string"
            },
            {
              "internalType": "string",
              "name": "_location",
              "type": "string"
            },
            {
              "internalType": "uint256",
              "name": "_price",
              "type": "uint256"
            }
          ],
          "name": "writeProduct",
          "outputs": [],
          "stateMutability": "nonpayable",
          "type": "function"
        }
      ],
      "evm": {
        "bytecode": {
          "linkReferences": {},
          "object": "60806040526000805573874069fa1eb16d44d622f2e0ca25eea172369bc1600160006101000a81548173ffffffffffffffffffffffffffffffffffffffff021916908373ffffffffffffffffffffffffffffffffffffffff16021790555034801561006957600080fd5b50610e2c806100796000396000f3fe60806040526004361061003f5760003560e01c80631155dfe5146100445780638642269e1461006f5780638da8f27b1461008b578063fffa7e2e146100b4575b600080fd5b34801561005057600080fd5b506100596100f7565b6040516100669190610788565b60405180910390f35b610089600480360381019061008491906107e3565b610100565b005b34801561009757600080fd5b506100b260048036038101906100ad9190610956565b61026b565b005b3480156100c057600080fd5b506100db60048036038101906100d691906107e3565b6103bb565b6040516100ee9796959493929190610b0a565b60405180910390f35b60008054905090565b600160009054906101000a900473ffffffffffffffffffffffffffffffffffffffff1673ffffffffffffffffffffffffffffffffffffffff166323b872dd336002600085815260200190815260200160002060000160009054906101000a900473ffffffffffffffffffffffffffffffffffffffff1660026000868152602001908152602001600020600501546040518463ffffffff1660e01b81526004016101ab93929190610c15565b602060405180830381600087803b1580156101c557600080fd5b505af11580156101d9573d6000803e3d6000fd5b505050506040513d601f19601f820116820180604052508101906101fd9190610c84565b61023c576040517f08c379a000000000000000000000000000000000000000000000000000000000815260040161023390610cfd565b60405180910390fd5b60026000828152602001908152602001600020600601600081548092919061026390610d4c565b919050555050565b60006040518060e001604052803373ffffffffffffffffffffffffffffffffffffffff16815260200187815260200186815260200185815260200184815260200183815260200182815250600260008054815260200190815260200160002060008201518160000160006101000a81548173ffffffffffffffffffffffffffffffffffffffff021916908373ffffffffffffffffffffffffffffffffffffffff160217905550602082015181600101908051906020019061032d9291906106cc565b50604082015181600201908051906020019061034a9291906106cc565b5060608201518160030190805190602001906103679291906106cc565b5060808201518160040190805190602001906103849291906106cc565b5060a0820151816005015560c082015181600601559050506000808154809291906103ae90610d4c565b9190505550505050505050565b60006060806060806000806002600089815260200190815260200160002060000160009054906101000a900473ffffffffffffffffffffffffffffffffffffffff16600260008a8152602001908152602001600020600101600260008b8152602001908152602001600020600201600260008c8152602001908152602001600020600301600260008d8152602001908152602001600020600401600260008e815260200190815260200160002060050154600260008f81526020019081526020016000206006015485805461048f90610dc4565b80601f01602080910402602001604051908101604052809291908181526020018280546104bb90610dc4565b80156105085780601f106104dd57610100808354040283529160200191610508565b820191906000526020600020905b8154815290600101906020018083116104eb57829003601f168201915b5050505050955084805461051b90610dc4565b80601f016020809104026020016040519081016040528092919081815260200182805461054790610dc4565b80156105945780601f1061056957610100808354040283529160200191610594565b820191906000526020600020905b81548152906001019060200180831161057757829003601f168201915b505050505094508380546105a790610dc4565b80601f01602080910402602001604051908101604052809291908181526020018280546105d390610dc4565b80156106205780601f106105f557610100808354040283529160200191610620565b820191906000526020600020905b81548152906001019060200180831161060357829003601f168201915b5050505050935082805461063390610dc4565b80601f016020809104026020016040519081016040528092919081815260200182805461065f90610dc4565b80156106ac5780601f10610681576101008083540402835291602001916106ac565b820191906000526020600020905b81548152906001019060200180831161068f57829003601f168201915b505050505092509650965096509650965096509650919395979092949650565b8280546106d890610dc4565b90600052602060002090601f0160209004810192826106fa5760008555610741565b82601f1061071357805160ff1916838001178555610741565b82800160010185558215610741579182015b82811115610740578251825591602001919060010190610725565b5b50905061074e9190610752565b5090565b5b8082111561076b576000816000905550600101610753565b5090565b6000819050919050565b6107828161076f565b82525050565b600060208201905061079d6000830184610779565b92915050565b6000604051905090565b600080fd5b600080fd5b6107c08161076f565b81146107cb57600080fd5b50565b6000813590506107dd816107b7565b92915050565b6000602082840312156107f9576107f86107ad565b5b6000610807848285016107ce565b91505092915050565b600080fd5b600080fd5b6000601f19601f8301169050919050565b7f4e487b7100000000000000000000000000000000000000000000000000000000600052604160045260246000fd5b6108638261081a565b810181811067ffffffffffffffff821117156108825761088161082b565b5b80604052505050565b60006108956107a3565b90506108a1828261085a565b919050565b600067ffffffffffffffff8211156108c1576108c061082b565b5b6108ca8261081a565b9050602081019050919050565b82818337600083830152505050565b60006108f96108f4846108a6565b61088b565b90508281526020810184848401111561091557610914610815565b5b6109208482856108d7565b509392505050565b600082601f83011261093d5761093c610810565b5b813561094d8482602086016108e6565b91505092915050565b600080600080600060a08688031215610972576109716107ad565b5b600086013567ffffffffffffffff8111156109905761098f6107b2565b5b61099c88828901610928565b955050602086013567ffffffffffffffff8111156109bd576109bc6107b2565b5b6109c988828901610928565b945050604086013567ffffffffffffffff8111156109ea576109e96107b2565b5b6109f688828901610928565b935050606086013567ffffffffffffffff811115610a1757610a166107b2565b5b610a2388828901610928565b9250506080610a34888289016107ce565b9150509295509295909350565b600073ffffffffffffffffffffffffffffffffffffffff82169050919050565b6000610a6c82610a41565b9050919050565b610a7c81610a61565b82525050565b600081519050919050565b600082825260208201905092915050565b60005b83811015610abc578082015181840152602081019050610aa1565b83811115610acb576000848401525b50505050565b6000610adc82610a82565b610ae68185610a8d565b9350610af6818560208601610a9e565b610aff8161081a565b840191505092915050565b600060e082019050610b1f600083018a610a73565b8181036020830152610b318189610ad1565b90508181036040830152610b458188610ad1565b90508181036060830152610b598187610ad1565b90508181036080830152610b6d8186610ad1565b9050610b7c60a0830185610779565b610b8960c0830184610779565b98975050505050505050565b6000610ba082610a41565b9050919050565b610bb081610b95565b82525050565b6000819050919050565b6000610bdb610bd6610bd184610a41565b610bb6565b610a41565b9050919050565b6000610bed82610bc0565b9050919050565b6000610bff82610be2565b9050919050565b610c0f81610bf4565b82525050565b6000606082019050610c2a6000830186610ba7565b610c376020830185610c06565b610c446040830184610779565b949350505050565b60008115159050919050565b610c6181610c4c565b8114610c6c57600080fd5b50565b600081519050610c7e81610c58565b92915050565b600060208284031215610c9a57610c996107ad565b5b6000610ca884828501610c6f565b91505092915050565b7f5472616e73666572206661696c65642e00000000000000000000000000000000600082015250565b6000610ce7601083610a8d565b9150610cf282610cb1565b602082019050919050565b60006020820190508181036000830152610d1681610cda565b9050919050565b7f4e487b7100000000000000000000000000000000000000000000000000000000600052601160045260246000fd5b6000610d578261076f565b91507fffffffffffffffffffffffffffffffffffffffffffffffffffffffffffffffff821415610d8a57610d89610d1d565b5b600182019050919050565b7f4e487b7100000000000000000000000000000000000000000000000000000000600052602260045260246000fd5b60006002820490506001821680610ddc57607f821691505b60208210811415610df057610def610d95565b5b5091905056fea2646970667358221220ec5e9e5e2f27ee7996d4e46c377bb21ebd8ef6fa6a38b3c955da590eefc25ab964736f6c63430008090033",
          "opcodes": "PUSH1 0x80 PUSH1 0x40 MSTORE PUSH1 0x0 DUP1 SSTORE PUSH20 0x874069FA1EB16D44D622F2E0CA25EEA172369BC1 PUSH1 0x1 PUSH1 0x0 PUSH2 0x100 EXP DUP2 SLOAD DUP2 PUSH20 0xFFFFFFFFFFFFFFFFFFFFFFFFFFFFFFFFFFFFFFFF MUL NOT AND SWAP1 DUP4 PUSH20 0xFFFFFFFFFFFFFFFFFFFFFFFFFFFFFFFFFFFFFFFF AND MUL OR SWAP1 SSTORE POP CALLVALUE DUP1 ISZERO PUSH2 0x69 JUMPI PUSH1 0x0 DUP1 REVERT JUMPDEST POP PUSH2 0xE2C DUP1 PUSH2 0x79 PUSH1 0x0 CODECOPY PUSH1 0x0 RETURN INVALID PUSH1 0x80 PUSH1 0x40 MSTORE PUSH1 0x4 CALLDATASIZE LT PUSH2 0x3F JUMPI PUSH1 0x0 CALLDATALOAD PUSH1 0xE0 SHR DUP1 PUSH4 0x1155DFE5 EQ PUSH2 0x44 JUMPI DUP1 PUSH4 0x8642269E EQ PUSH2 0x6F JUMPI DUP1 PUSH4 0x8DA8F27B EQ PUSH2 0x8B JUMPI DUP1 PUSH4 0xFFFA7E2E EQ PUSH2 0xB4 JUMPI JUMPDEST PUSH1 0x0 DUP1 REVERT JUMPDEST CALLVALUE DUP1 ISZERO PUSH2 0x50 JUMPI PUSH1 0x0 DUP1 REVERT JUMPDEST POP PUSH2 0x59 PUSH2 0xF7 JUMP JUMPDEST PUSH1 0x40 MLOAD PUSH2 0x66 SWAP2 SWAP1 PUSH2 0x788 JUMP JUMPDEST PUSH1 0x40 MLOAD DUP1 SWAP2 SUB SWAP1 RETURN JUMPDEST PUSH2 0x89 PUSH1 0x4 DUP1 CALLDATASIZE SUB DUP2 ADD SWAP1 PUSH2 0x84 SWAP2 SWAP1 PUSH2 0x7E3 JUMP JUMPDEST PUSH2 0x100 JUMP JUMPDEST STOP JUMPDEST CALLVALUE DUP1 ISZERO PUSH2 0x97 JUMPI PUSH1 0x0 DUP1 REVERT JUMPDEST POP PUSH2 0xB2 PUSH1 0x4 DUP1 CALLDATASIZE SUB DUP2 ADD SWAP1 PUSH2 0xAD SWAP2 SWAP1 PUSH2 0x956 JUMP JUMPDEST PUSH2 0x26B JUMP JUMPDEST STOP JUMPDEST CALLVALUE DUP1 ISZERO PUSH2 0xC0 JUMPI PUSH1 0x0 DUP1 REVERT JUMPDEST POP PUSH2 0xDB PUSH1 0x4 DUP1 CALLDATASIZE SUB DUP2 ADD SWAP1 PUSH2 0xD6 SWAP2 SWAP1 PUSH2 0x7E3 JUMP JUMPDEST PUSH2 0x3BB JUMP JUMPDEST PUSH1 0x40 MLOAD PUSH2 0xEE SWAP8 SWAP7 SWAP6 SWAP5 SWAP4 SWAP3 SWAP2 SWAP1 PUSH2 0xB0A JUMP JUMPDEST PUSH1 0x40 MLOAD DUP1 SWAP2 SUB SWAP1 RETURN JUMPDEST PUSH1 0x0 DUP1 SLOAD SWAP1 POP SWAP1 JUMP JUMPDEST PUSH1 0x1 PUSH1 0x0 SWAP1 SLOAD SWAP1 PUSH2 0x100 EXP SWAP1 DIV PUSH20 0xFFFFFFFFFFFFFFFFFFFFFFFFFFFFFFFFFFFFFFFF AND PUSH20 0xFFFFFFFFFFFFFFFFFFFFFFFFFFFFFFFFFFFFFFFF AND PUSH4 0x23B872DD CALLER PUSH1 0x2 PUSH1 0x0 DUP6 DUP2 MSTORE PUSH1 0x20 ADD SWAP1 DUP2 MSTORE PUSH1 0x20 ADD PUSH1 0x0 KECCAK256 PUSH1 0x0 ADD PUSH1 0x0 SWAP1 SLOAD SWAP1 PUSH2 0x100 EXP SWAP1 DIV PUSH20 0xFFFFFFFFFFFFFFFFFFFFFFFFFFFFFFFFFFFFFFFF AND PUSH1 0x2 PUSH1 0x0 DUP7 DUP2 MSTORE PUSH1 0x20 ADD SWAP1 DUP2 MSTORE PUSH1 0x20 ADD PUSH1 0x0 KECCAK256 PUSH1 0x5 ADD SLOAD PUSH1 0x40 MLOAD DUP5 PUSH4 0xFFFFFFFF AND PUSH1 0xE0 SHL DUP2 MSTORE PUSH1 0x4 ADD PUSH2 0x1AB SWAP4 SWAP3 SWAP2 SWAP1 PUSH2 0xC15 JUMP JUMPDEST PUSH1 0x20 PUSH1 0x40 MLOAD DUP1 DUP4 SUB DUP2 PUSH1 0x0 DUP8 DUP1 EXTCODESIZE ISZERO DUP1 ISZERO PUSH2 0x1C5 JUMPI PUSH1 0x0 DUP1 REVERT JUMPDEST POP GAS CALL ISZERO DUP1 ISZERO PUSH2 0x1D9 JUMPI RETURNDATASIZE PUSH1 0x0 DUP1 RETURNDATACOPY RETURNDATASIZE PUSH1 0x0 REVERT JUMPDEST POP POP POP POP PUSH1 0x40 MLOAD RETURNDATASIZE PUSH1 0x1F NOT PUSH1 0x1F DUP3 ADD AND DUP3 ADD DUP1 PUSH1 0x40 MSTORE POP DUP2 ADD SWAP1 PUSH2 0x1FD SWAP2 SWAP1 PUSH2 0xC84 JUMP JUMPDEST PUSH2 0x23C JUMPI PUSH1 0x40 MLOAD PUSH32 0x8C379A000000000000000000000000000000000000000000000000000000000 DUP2 MSTORE PUSH1 0x4 ADD PUSH2 0x233 SWAP1 PUSH2 0xCFD JUMP JUMPDEST PUSH1 0x40 MLOAD DUP1 SWAP2 SUB SWAP1 REVERT JUMPDEST PUSH1 0x2 PUSH1 0x0 DUP3 DUP2 MSTORE PUSH1 0x20 ADD SWAP1 DUP2 MSTORE PUSH1 0x20 ADD PUSH1 0x0 KECCAK256 PUSH1 0x6 ADD PUSH1 0x0 DUP2 SLOAD DUP1 SWAP3 SWAP2 SWAP1 PUSH2 0x263 SWAP1 PUSH2 0xD4C JUMP JUMPDEST SWAP2 SWAP1 POP SSTORE POP POP JUMP JUMPDEST PUSH1 0x0 PUSH1 0x40 MLOAD DUP1 PUSH1 0xE0 ADD PUSH1 0x40 MSTORE DUP1 CALLER PUSH20 0xFFFFFFFFFFFFFFFFFFFFFFFFFFFFFFFFFFFFFFFF AND DUP2 MSTORE PUSH1 0x20 ADD DUP8 DUP2 MSTORE PUSH1 0x20 ADD DUP7 DUP2 MSTORE PUSH1 0x20 ADD DUP6 DUP2 MSTORE PUSH1 0x20 ADD DUP5 DUP2 MSTORE PUSH1 0x20 ADD DUP4 DUP2 MSTORE PUSH1 0x20 ADD DUP3 DUP2 MSTORE POP PUSH1 0x2 PUSH1 0x0 DUP1 SLOAD DUP2 MSTORE PUSH1 0x20 ADD SWAP1 DUP2 MSTORE PUSH1 0x20 ADD PUSH1 0x0 KECCAK256 PUSH1 0x0 DUP3 ADD MLOAD DUP2 PUSH1 0x0 ADD PUSH1 0x0 PUSH2 0x100 EXP DUP2 SLOAD DUP2 PUSH20 0xFFFFFFFFFFFFFFFFFFFFFFFFFFFFFFFFFFFFFFFF MUL NOT AND SWAP1 DUP4 PUSH20 0xFFFFFFFFFFFFFFFFFFFFFFFFFFFFFFFFFFFFFFFF AND MUL OR SWAP1 SSTORE POP PUSH1 0x20 DUP3 ADD MLOAD DUP2 PUSH1 0x1 ADD SWAP1 DUP1 MLOAD SWAP1 PUSH1 0x20 ADD SWAP1 PUSH2 0x32D SWAP3 SWAP2 SWAP1 PUSH2 0x6CC JUMP JUMPDEST POP PUSH1 0x40 DUP3 ADD MLOAD DUP2 PUSH1 0x2 ADD SWAP1 DUP1 MLOAD SWAP1 PUSH1 0x20 ADD SWAP1 PUSH2 0x34A SWAP3 SWAP2 SWAP1 PUSH2 0x6CC JUMP JUMPDEST POP PUSH1 0x60 DUP3 ADD MLOAD DUP2 PUSH1 0x3 ADD SWAP1 DUP1 MLOAD SWAP1 PUSH1 0x20 ADD SWAP1 PUSH2 0x367 SWAP3 SWAP2 SWAP1 PUSH2 0x6CC JUMP JUMPDEST POP PUSH1 0x80 DUP3 ADD MLOAD DUP2 PUSH1 0x4 ADD SWAP1 DUP1 MLOAD SWAP1 PUSH1 0x20 ADD SWAP1 PUSH2 0x384 SWAP3 SWAP2 SWAP1 PUSH2 0x6CC JUMP JUMPDEST POP PUSH1 0xA0 DUP3 ADD MLOAD DUP2 PUSH1 0x5 ADD SSTORE PUSH1 0xC0 DUP3 ADD MLOAD DUP2 PUSH1 0x6 ADD SSTORE SWAP1 POP POP PUSH1 0x0 DUP1 DUP2 SLOAD DUP1 SWAP3 SWAP2 SWAP1 PUSH2 0x3AE SWAP1 PUSH2 0xD4C JUMP JUMPDEST SWAP2 SWAP1 POP SSTORE POP POP POP POP POP POP POP JUMP JUMPDEST PUSH1 0x0 PUSH1 0x60 DUP1 PUSH1 0x60 DUP1 PUSH1 0x0 DUP1 PUSH1 0x2 PUSH1 0x0 DUP10 DUP2 MSTORE PUSH1 0x20 ADD SWAP1 DUP2 MSTORE PUSH1 0x20 ADD PUSH1 0x0 KECCAK256 PUSH1 0x0 ADD PUSH1 0x0 SWAP1 SLOAD SWAP1 PUSH2 0x100 EXP SWAP1 DIV PUSH20 0xFFFFFFFFFFFFFFFFFFFFFFFFFFFFFFFFFFFFFFFF AND PUSH1 0x2 PUSH1 0x0 DUP11 DUP2 MSTORE PUSH1 0x20 ADD SWAP1 DUP2 MSTORE PUSH1 0x20 ADD PUSH1 0x0 KECCAK256 PUSH1 0x1 ADD PUSH1 0x2 PUSH1 0x0 DUP12 DUP2 MSTORE PUSH1 0x20 ADD SWAP1 DUP2 MSTORE PUSH1 0x20 ADD PUSH1 0x0 KECCAK256 PUSH1 0x2 ADD PUSH1 0x2 PUSH1 0x0 DUP13 DUP2 MSTORE PUSH1 0x20 ADD SWAP1 DUP2 MSTORE PUSH1 0x20 ADD PUSH1 0x0 KECCAK256 PUSH1 0x3 ADD PUSH1 0x2 PUSH1 0x0 DUP14 DUP2 MSTORE PUSH1 0x20 ADD SWAP1 DUP2 MSTORE PUSH1 0x20 ADD PUSH1 0x0 KECCAK256 PUSH1 0x4 ADD PUSH1 0x2 PUSH1 0x0 DUP15 DUP2 MSTORE PUSH1 0x20 ADD SWAP1 DUP2 MSTORE PUSH1 0x20 ADD PUSH1 0x0 KECCAK256 PUSH1 0x5 ADD SLOAD PUSH1 0x2 PUSH1 0x0 DUP16 DUP2 MSTORE PUSH1 0x20 ADD SWAP1 DUP2 MSTORE PUSH1 0x20 ADD PUSH1 0x0 KECCAK256 PUSH1 0x6 ADD SLOAD DUP6 DUP1 SLOAD PUSH2 0x48F SWAP1 PUSH2 0xDC4 JUMP JUMPDEST DUP1 PUSH1 0x1F ADD PUSH1 0x20 DUP1 SWAP2 DIV MUL PUSH1 0x20 ADD PUSH1 0x40 MLOAD SWAP1 DUP2 ADD PUSH1 0x40 MSTORE DUP1 SWAP3 SWAP2 SWAP1 DUP2 DUP2 MSTORE PUSH1 0x20 ADD DUP3 DUP1 SLOAD PUSH2 0x4BB SWAP1 PUSH2 0xDC4 JUMP JUMPDEST DUP1 ISZERO PUSH2 0x508 JUMPI DUP1 PUSH1 0x1F LT PUSH2 0x4DD JUMPI PUSH2 0x100 DUP1 DUP4 SLOAD DIV MUL DUP4 MSTORE SWAP2 PUSH1 0x20 ADD SWAP2 PUSH2 0x508 JUMP JUMPDEST DUP3 ADD SWAP2 SWAP1 PUSH1 0x0 MSTORE PUSH1 0x20 PUSH1 0x0 KECCAK256 SWAP1 JUMPDEST DUP2 SLOAD DUP2 MSTORE SWAP1 PUSH1 0x1 ADD SWAP1 PUSH1 0x20 ADD DUP1 DUP4 GT PUSH2 0x4EB JUMPI DUP3 SWAP1 SUB PUSH1 0x1F AND DUP3 ADD SWAP2 JUMPDEST POP POP POP POP POP SWAP6 POP DUP5 DUP1 SLOAD PUSH2 0x51B SWAP1 PUSH2 0xDC4 JUMP JUMPDEST DUP1 PUSH1 0x1F ADD PUSH1 0x20 DUP1 SWAP2 DIV MUL PUSH1 0x20 ADD PUSH1 0x40 MLOAD SWAP1 DUP2 ADD PUSH1 0x40 MSTORE DUP1 SWAP3 SWAP2 SWAP1 DUP2 DUP2 MSTORE PUSH1 0x20 ADD DUP3 DUP1 SLOAD PUSH2 0x547 SWAP1 PUSH2 0xDC4 JUMP JUMPDEST DUP1 ISZERO PUSH2 0x594 JUMPI DUP1 PUSH1 0x1F LT PUSH2 0x569 JUMPI PUSH2 0x100 DUP1 DUP4 SLOAD DIV MUL DUP4 MSTORE SWAP2 PUSH1 0x20 ADD SWAP2 PUSH2 0x594 JUMP JUMPDEST DUP3 ADD SWAP2 SWAP1 PUSH1 0x0 MSTORE PUSH1 0x20 PUSH1 0x0 KECCAK256 SWAP1 JUMPDEST DUP2 SLOAD DUP2 MSTORE SWAP1 PUSH1 0x1 ADD SWAP1 PUSH1 0x20 ADD DUP1 DUP4 GT PUSH2 0x577 JUMPI DUP3 SWAP1 SUB PUSH1 0x1F AND DUP3 ADD SWAP2 JUMPDEST POP POP POP POP POP SWAP5 POP DUP4 DUP1 SLOAD PUSH2 0x5A7 SWAP1 PUSH2 0xDC4 JUMP JUMPDEST DUP1 PUSH1 0x1F ADD PUSH1 0x20 DUP1 SWAP2 DIV MUL PUSH1 0x20 ADD PUSH1 0x40 MLOAD SWAP1 DUP2 ADD PUSH1 0x40 MSTORE DUP1 SWAP3 SWAP2 SWAP1 DUP2 DUP2 MSTORE PUSH1 0x20 ADD DUP3 DUP1 SLOAD PUSH2 0x5D3 SWAP1 PUSH2 0xDC4 JUMP JUMPDEST DUP1 ISZERO PUSH2 0x620 JUMPI DUP1 PUSH1 0x1F LT PUSH2 0x5F5 JUMPI PUSH2 0x100 DUP1 DUP4 SLOAD DIV MUL DUP4 MSTORE SWAP2 PUSH1 0x20 ADD SWAP2 PUSH2 0x620 JUMP JUMPDEST DUP3 ADD SWAP2 SWAP1 PUSH1 0x0 MSTORE PUSH1 0x20 PUSH1 0x0 KECCAK256 SWAP1 JUMPDEST DUP2 SLOAD DUP2 MSTORE SWAP1 PUSH1 0x1 ADD SWAP1 PUSH1 0x20 ADD DUP1 DUP4 GT PUSH2 0x603 JUMPI DUP3 SWAP1 SUB PUSH1 0x1F AND DUP3 ADD SWAP2 JUMPDEST POP POP POP POP POP SWAP4 POP DUP3 DUP1 SLOAD PUSH2 0x633 SWAP1 PUSH2 0xDC4 JUMP JUMPDEST DUP1 PUSH1 0x1F ADD PUSH1 0x20 DUP1 SWAP2 DIV MUL PUSH1 0x20 ADD PUSH1 0x40 MLOAD SWAP1 DUP2 ADD PUSH1 0x40 MSTORE DUP1 SWAP3 SWAP2 SWAP1 DUP2 DUP2 MSTORE PUSH1 0x20 ADD DUP3 DUP1 SLOAD PUSH2 0x65F SWAP1 PUSH2 0xDC4 JUMP JUMPDEST DUP1 ISZERO PUSH2 0x6AC JUMPI DUP1 PUSH1 0x1F LT PUSH2 0x681 JUMPI PUSH2 0x100 DUP1 DUP4 SLOAD DIV MUL DUP4 MSTORE SWAP2 PUSH1 0x20 ADD SWAP2 PUSH2 0x6AC JUMP JUMPDEST DUP3 ADD SWAP2 SWAP1 PUSH1 0x0 MSTORE PUSH1 0x20 PUSH1 0x0 KECCAK256 SWAP1 JUMPDEST DUP2 SLOAD DUP2 MSTORE SWAP1 PUSH1 0x1 ADD SWAP1 PUSH1 0x20 ADD DUP1 DUP4 GT PUSH2 0x68F JUMPI DUP3 SWAP1 SUB PUSH1 0x1F AND DUP3 ADD SWAP2 JUMPDEST POP POP POP POP POP SWAP3 POP SWAP7 POP SWAP7 POP SWAP7 POP SWAP7 POP SWAP7 POP SWAP7 POP SWAP7 POP SWAP2 SWAP4 SWAP6 SWAP8 SWAP1 SWAP3 SWAP5 SWAP7 POP JUMP JUMPDEST DUP3 DUP1 SLOAD PUSH2 0x6D8 SWAP1 PUSH2 0xDC4 JUMP JUMPDEST SWAP1 PUSH1 0x0 MSTORE PUSH1 0x20 PUSH1 0x0 KECCAK256 SWAP1 PUSH1 0x1F ADD PUSH1 0x20 SWAP1 DIV DUP2 ADD SWAP3 DUP3 PUSH2 0x6FA JUMPI PUSH1 0x0 DUP6 SSTORE PUSH2 0x741 JUMP JUMPDEST DUP3 PUSH1 0x1F LT PUSH2 0x713 JUMPI DUP1 MLOAD PUSH1 0xFF NOT AND DUP4 DUP1 ADD OR DUP6 SSTORE PUSH2 0x741 JUMP JUMPDEST DUP3 DUP1 ADD PUSH1 0x1 ADD DUP6 SSTORE DUP3 ISZERO PUSH2 0x741 JUMPI SWAP2 DUP3 ADD JUMPDEST DUP3 DUP2 GT ISZERO PUSH2 0x740 JUMPI DUP3 MLOAD DUP3 SSTORE SWAP2 PUSH1 0x20 ADD SWAP2 SWAP1 PUSH1 0x1 ADD SWAP1 PUSH2 0x725 JUMP JUMPDEST JUMPDEST POP SWAP1 POP PUSH2 0x74E SWAP2 SWAP1 PUSH2 0x752 JUMP JUMPDEST POP SWAP1 JUMP JUMPDEST JUMPDEST DUP1 DUP3 GT ISZERO PUSH2 0x76B JUMPI PUSH1 0x0 DUP2 PUSH1 0x0 SWAP1 SSTORE POP PUSH1 0x1 ADD PUSH2 0x753 JUMP JUMPDEST POP SWAP1 JUMP JUMPDEST PUSH1 0x0 DUP2 SWAP1 POP SWAP2 SWAP1 POP JUMP JUMPDEST PUSH2 0x782 DUP2 PUSH2 0x76F JUMP JUMPDEST DUP3 MSTORE POP POP JUMP JUMPDEST PUSH1 0x0 PUSH1 0x20 DUP3 ADD SWAP1 POP PUSH2 0x79D PUSH1 0x0 DUP4 ADD DUP5 PUSH2 0x779 JUMP JUMPDEST SWAP3 SWAP2 POP POP JUMP JUMPDEST PUSH1 0x0 PUSH1 0x40 MLOAD SWAP1 POP SWAP1 JUMP JUMPDEST PUSH1 0x0 DUP1 REVERT JUMPDEST PUSH1 0x0 DUP1 REVERT JUMPDEST PUSH2 0x7C0 DUP2 PUSH2 0x76F JUMP JUMPDEST DUP2 EQ PUSH2 0x7CB JUMPI PUSH1 0x0 DUP1 REVERT JUMPDEST POP JUMP JUMPDEST PUSH1 0x0 DUP2 CALLDATALOAD SWAP1 POP PUSH2 0x7DD DUP2 PUSH2 0x7B7 JUMP JUMPDEST SWAP3 SWAP2 POP POP JUMP JUMPDEST PUSH1 0x0 PUSH1 0x20 DUP3 DUP5 SUB SLT ISZERO PUSH2 0x7F9 JUMPI PUSH2 0x7F8 PUSH2 0x7AD JUMP JUMPDEST JUMPDEST PUSH1 0x0 PUSH2 0x807 DUP5 DUP3 DUP6 ADD PUSH2 0x7CE JUMP JUMPDEST SWAP2 POP POP SWAP3 SWAP2 POP POP JUMP JUMPDEST PUSH1 0x0 DUP1 REVERT JUMPDEST PUSH1 0x0 DUP1 REVERT JUMPDEST PUSH1 0x0 PUSH1 0x1F NOT PUSH1 0x1F DUP4 ADD AND SWAP1 POP SWAP2 SWAP1 POP JUMP JUMPDEST PUSH32 0x4E487B7100000000000000000000000000000000000000000000000000000000 PUSH1 0x0 MSTORE PUSH1 0x41 PUSH1 0x4 MSTORE PUSH1 0x24 PUSH1 0x0 REVERT JUMPDEST PUSH2 0x863 DUP3 PUSH2 0x81A JUMP JUMPDEST DUP2 ADD DUP2 DUP2 LT PUSH8 0xFFFFFFFFFFFFFFFF DUP3 GT OR ISZERO PUSH2 0x882 JUMPI PUSH2 0x881 PUSH2 0x82B JUMP JUMPDEST JUMPDEST DUP1 PUSH1 0x40 MSTORE POP POP POP JUMP JUMPDEST PUSH1 0x0 PUSH2 0x895 PUSH2 0x7A3 JUMP JUMPDEST SWAP1 POP PUSH2 0x8A1 DUP3 DUP3 PUSH2 0x85A JUMP JUMPDEST SWAP2 SWAP1 POP JUMP JUMPDEST PUSH1 0x0 PUSH8 0xFFFFFFFFFFFFFFFF DUP3 GT ISZERO PUSH2 0x8C1 JUMPI PUSH2 0x8C0 PUSH2 0x82B JUMP JUMPDEST JUMPDEST PUSH2 0x8CA DUP3 PUSH2 0x81A JUMP JUMPDEST SWAP1 POP PUSH1 0x20 DUP2 ADD SWAP1 POP SWAP2 SWAP1 POP JUMP JUMPDEST DUP3 DUP2 DUP4 CALLDATACOPY PUSH1 0x0 DUP4 DUP4 ADD MSTORE POP POP POP JUMP JUMPDEST PUSH1 0x0 PUSH2 0x8F9 PUSH2 0x8F4 DUP5 PUSH2 0x8A6 JUMP JUMPDEST PUSH2 0x88B JUMP JUMPDEST SWAP1 POP DUP3 DUP2 MSTORE PUSH1 0x20 DUP2 ADD DUP5 DUP5 DUP5 ADD GT ISZERO PUSH2 0x915 JUMPI PUSH2 0x914 PUSH2 0x815 JUMP JUMPDEST JUMPDEST PUSH2 0x920 DUP5 DUP3 DUP6 PUSH2 0x8D7 JUMP JUMPDEST POP SWAP4 SWAP3 POP POP POP JUMP JUMPDEST PUSH1 0x0 DUP3 PUSH1 0x1F DUP4 ADD SLT PUSH2 0x93D JUMPI PUSH2 0x93C PUSH2 0x810 JUMP JUMPDEST JUMPDEST DUP2 CALLDATALOAD PUSH2 0x94D DUP5 DUP3 PUSH1 0x20 DUP7 ADD PUSH2 0x8E6 JUMP JUMPDEST SWAP2 POP POP SWAP3 SWAP2 POP POP JUMP JUMPDEST PUSH1 0x0 DUP1 PUSH1 0x0 DUP1 PUSH1 0x0 PUSH1 0xA0 DUP7 DUP9 SUB SLT ISZERO PUSH2 0x972 JUMPI PUSH2 0x971 PUSH2 0x7AD JUMP JUMPDEST JUMPDEST PUSH1 0x0 DUP7 ADD CALLDATALOAD PUSH8 0xFFFFFFFFFFFFFFFF DUP2 GT ISZERO PUSH2 0x990 JUMPI PUSH2 0x98F PUSH2 0x7B2 JUMP JUMPDEST JUMPDEST PUSH2 0x99C DUP9 DUP3 DUP10 ADD PUSH2 0x928 JUMP JUMPDEST SWAP6 POP POP PUSH1 0x20 DUP7 ADD CALLDATALOAD PUSH8 0xFFFFFFFFFFFFFFFF DUP2 GT ISZERO PUSH2 0x9BD JUMPI PUSH2 0x9BC PUSH2 0x7B2 JUMP JUMPDEST JUMPDEST PUSH2 0x9C9 DUP9 DUP3 DUP10 ADD PUSH2 0x928 JUMP JUMPDEST SWAP5 POP POP PUSH1 0x40 DUP7 ADD CALLDATALOAD PUSH8 0xFFFFFFFFFFFFFFFF DUP2 GT ISZERO PUSH2 0x9EA JUMPI PUSH2 0x9E9 PUSH2 0x7B2 JUMP JUMPDEST JUMPDEST PUSH2 0x9F6 DUP9 DUP3 DUP10 ADD PUSH2 0x928 JUMP JUMPDEST SWAP4 POP POP PUSH1 0x60 DUP7 ADD CALLDATALOAD PUSH8 0xFFFFFFFFFFFFFFFF DUP2 GT ISZERO PUSH2 0xA17 JUMPI PUSH2 0xA16 PUSH2 0x7B2 JUMP JUMPDEST JUMPDEST PUSH2 0xA23 DUP9 DUP3 DUP10 ADD PUSH2 0x928 JUMP JUMPDEST SWAP3 POP POP PUSH1 0x80 PUSH2 0xA34 DUP9 DUP3 DUP10 ADD PUSH2 0x7CE JUMP JUMPDEST SWAP2 POP POP SWAP3 SWAP6 POP SWAP3 SWAP6 SWAP1 SWAP4 POP JUMP JUMPDEST PUSH1 0x0 PUSH20 0xFFFFFFFFFFFFFFFFFFFFFFFFFFFFFFFFFFFFFFFF DUP3 AND SWAP1 POP SWAP2 SWAP1 POP JUMP JUMPDEST PUSH1 0x0 PUSH2 0xA6C DUP3 PUSH2 0xA41 JUMP JUMPDEST SWAP1 POP SWAP2 SWAP1 POP JUMP JUMPDEST PUSH2 0xA7C DUP2 PUSH2 0xA61 JUMP JUMPDEST DUP3 MSTORE POP POP JUMP JUMPDEST PUSH1 0x0 DUP2 MLOAD SWAP1 POP SWAP2 SWAP1 POP JUMP JUMPDEST PUSH1 0x0 DUP3 DUP3 MSTORE PUSH1 0x20 DUP3 ADD SWAP1 POP SWAP3 SWAP2 POP POP JUMP JUMPDEST PUSH1 0x0 JUMPDEST DUP4 DUP2 LT ISZERO PUSH2 0xABC JUMPI DUP1 DUP3 ADD MLOAD DUP2 DUP5 ADD MSTORE PUSH1 0x20 DUP2 ADD SWAP1 POP PUSH2 0xAA1 JUMP JUMPDEST DUP4 DUP2 GT ISZERO PUSH2 0xACB JUMPI PUSH1 0x0 DUP5 DUP5 ADD MSTORE JUMPDEST POP POP POP POP JUMP JUMPDEST PUSH1 0x0 PUSH2 0xADC DUP3 PUSH2 0xA82 JUMP JUMPDEST PUSH2 0xAE6 DUP2 DUP6 PUSH2 0xA8D JUMP JUMPDEST SWAP4 POP PUSH2 0xAF6 DUP2 DUP6 PUSH1 0x20 DUP7 ADD PUSH2 0xA9E JUMP JUMPDEST PUSH2 0xAFF DUP2 PUSH2 0x81A JUMP JUMPDEST DUP5 ADD SWAP2 POP POP SWAP3 SWAP2 POP POP JUMP JUMPDEST PUSH1 0x0 PUSH1 0xE0 DUP3 ADD SWAP1 POP PUSH2 0xB1F PUSH1 0x0 DUP4 ADD DUP11 PUSH2 0xA73 JUMP JUMPDEST DUP2 DUP2 SUB PUSH1 0x20 DUP4 ADD MSTORE PUSH2 0xB31 DUP2 DUP10 PUSH2 0xAD1 JUMP JUMPDEST SWAP1 POP DUP2 DUP2 SUB PUSH1 0x40 DUP4 ADD MSTORE PUSH2 0xB45 DUP2 DUP9 PUSH2 0xAD1 JUMP JUMPDEST SWAP1 POP DUP2 DUP2 SUB PUSH1 0x60 DUP4 ADD MSTORE PUSH2 0xB59 DUP2 DUP8 PUSH2 0xAD1 JUMP JUMPDEST SWAP1 POP DUP2 DUP2 SUB PUSH1 0x80 DUP4 ADD MSTORE PUSH2 0xB6D DUP2 DUP7 PUSH2 0xAD1 JUMP JUMPDEST SWAP1 POP PUSH2 0xB7C PUSH1 0xA0 DUP4 ADD DUP6 PUSH2 0x779 JUMP JUMPDEST PUSH2 0xB89 PUSH1 0xC0 DUP4 ADD DUP5 PUSH2 0x779 JUMP JUMPDEST SWAP9 SWAP8 POP POP POP POP POP POP POP POP JUMP JUMPDEST PUSH1 0x0 PUSH2 0xBA0 DUP3 PUSH2 0xA41 JUMP JUMPDEST SWAP1 POP SWAP2 SWAP1 POP JUMP JUMPDEST PUSH2 0xBB0 DUP2 PUSH2 0xB95 JUMP JUMPDEST DUP3 MSTORE POP POP JUMP JUMPDEST PUSH1 0x0 DUP2 SWAP1 POP SWAP2 SWAP1 POP JUMP JUMPDEST PUSH1 0x0 PUSH2 0xBDB PUSH2 0xBD6 PUSH2 0xBD1 DUP5 PUSH2 0xA41 JUMP JUMPDEST PUSH2 0xBB6 JUMP JUMPDEST PUSH2 0xA41 JUMP JUMPDEST SWAP1 POP SWAP2 SWAP1 POP JUMP JUMPDEST PUSH1 0x0 PUSH2 0xBED DUP3 PUSH2 0xBC0 JUMP JUMPDEST SWAP1 POP SWAP2 SWAP1 POP JUMP JUMPDEST PUSH1 0x0 PUSH2 0xBFF DUP3 PUSH2 0xBE2 JUMP JUMPDEST SWAP1 POP SWAP2 SWAP1 POP JUMP JUMPDEST PUSH2 0xC0F DUP2 PUSH2 0xBF4 JUMP JUMPDEST DUP3 MSTORE POP POP JUMP JUMPDEST PUSH1 0x0 PUSH1 0x60 DUP3 ADD SWAP1 POP PUSH2 0xC2A PUSH1 0x0 DUP4 ADD DUP7 PUSH2 0xBA7 JUMP JUMPDEST PUSH2 0xC37 PUSH1 0x20 DUP4 ADD DUP6 PUSH2 0xC06 JUMP JUMPDEST PUSH2 0xC44 PUSH1 0x40 DUP4 ADD DUP5 PUSH2 0x779 JUMP JUMPDEST SWAP5 SWAP4 POP POP POP POP JUMP JUMPDEST PUSH1 0x0 DUP2 ISZERO ISZERO SWAP1 POP SWAP2 SWAP1 POP JUMP JUMPDEST PUSH2 0xC61 DUP2 PUSH2 0xC4C JUMP JUMPDEST DUP2 EQ PUSH2 0xC6C JUMPI PUSH1 0x0 DUP1 REVERT JUMPDEST POP JUMP JUMPDEST PUSH1 0x0 DUP2 MLOAD SWAP1 POP PUSH2 0xC7E DUP2 PUSH2 0xC58 JUMP JUMPDEST SWAP3 SWAP2 POP POP JUMP JUMPDEST PUSH1 0x0 PUSH1 0x20 DUP3 DUP5 SUB SLT ISZERO PUSH2 0xC9A JUMPI PUSH2 0xC99 PUSH2 0x7AD JUMP JUMPDEST JUMPDEST PUSH1 0x0 PUSH2 0xCA8 DUP5 DUP3 DUP6 ADD PUSH2 0xC6F JUMP JUMPDEST SWAP2 POP POP SWAP3 SWAP2 POP POP JUMP JUMPDEST PUSH32 0x5472616E73666572206661696C65642E00000000000000000000000000000000 PUSH1 0x0 DUP3 ADD MSTORE POP JUMP JUMPDEST PUSH1 0x0 PUSH2 0xCE7 PUSH1 0x10 DUP4 PUSH2 0xA8D JUMP JUMPDEST SWAP2 POP PUSH2 0xCF2 DUP3 PUSH2 0xCB1 JUMP JUMPDEST PUSH1 0x20 DUP3 ADD SWAP1 POP SWAP2 SWAP1 POP JUMP JUMPDEST PUSH1 0x0 PUSH1 0x20 DUP3 ADD SWAP1 POP DUP2 DUP2 SUB PUSH1 0x0 DUP4 ADD MSTORE PUSH2 0xD16 DUP2 PUSH2 0xCDA JUMP JUMPDEST SWAP1 POP SWAP2 SWAP1 POP JUMP JUMPDEST PUSH32 0x4E487B7100000000000000000000000000000000000000000000000000000000 PUSH1 0x0 MSTORE PUSH1 0x11 PUSH1 0x4 MSTORE PUSH1 0x24 PUSH1 0x0 REVERT JUMPDEST PUSH1 0x0 PUSH2 0xD57 DUP3 PUSH2 0x76F JUMP JUMPDEST SWAP2 POP PUSH32 0xFFFFFFFFFFFFFFFFFFFFFFFFFFFFFFFFFFFFFFFFFFFFFFFFFFFFFFFFFFFFFFFF DUP3 EQ ISZERO PUSH2 0xD8A JUMPI PUSH2 0xD89 PUSH2 0xD1D JUMP JUMPDEST JUMPDEST PUSH1 0x1 DUP3 ADD SWAP1 POP SWAP2 SWAP1 POP JUMP JUMPDEST PUSH32 0x4E487B7100000000000000000000000000000000000000000000000000000000 PUSH1 0x0 MSTORE PUSH1 0x22 PUSH1 0x4 MSTORE PUSH1 0x24 PUSH1 0x0 REVERT JUMPDEST PUSH1 0x0 PUSH1 0x2 DUP3 DIV SWAP1 POP PUSH1 0x1 DUP3 AND DUP1 PUSH2 0xDDC JUMPI PUSH1 0x7F DUP3 AND SWAP2 POP JUMPDEST PUSH1 0x20 DUP3 LT DUP2 EQ ISZERO PUSH2 0xDF0 JUMPI PUSH2 0xDEF PUSH2 0xD95 JUMP JUMPDEST JUMPDEST POP SWAP2 SWAP1 POP JUMP INVALID LOG2 PUSH5 0x6970667358 0x22 SLT KECCAK256 0xEC 0x5E SWAP15 0x5E 0x2F 0x27 0xEE PUSH26 0x96D4E46C377BB21EBD8EF6FA6A38B3C955DA590EEFC25AB96473 PUSH16 0x6C634300080900330000000000000000 "
        },
        "methodIdentifiers": {
          "buyProduct(uint256)": "8642269e",
          "getProductsLength()": "1155dfe5",
          "readProduct(uint256)": "fffa7e2e",
          "writeProduct(string,string,string,string,uint256)": "8da8f27b"
        }
      }
    }
  }
}