{
  "_format": "hh-sol-artifact-1",
  "contractName": "DefaultProject",
  "sourceName": "contracts/DefaultProject.sol",
  "abi": [
    {
      "inputs": [],
      "stateMutability": "nonpayable",
      "type": "constructor"
    },
    {
      "anonymous": false,
      "inputs": [
        {
          "indexed": true,
          "internalType": "address",
          "name": "owner",
          "type": "address"
        },
        {
          "indexed": true,
          "internalType": "address",
          "name": "approved",
          "type": "address"
        },
        {
          "indexed": true,
          "internalType": "uint256",
          "name": "tokenId",
          "type": "uint256"
        }
      ],
      "name": "Approval",
      "type": "event"
    },
    {
      "anonymous": false,
      "inputs": [
        {
          "indexed": true,
          "internalType": "address",
          "name": "owner",
          "type": "address"
        },
        {
          "indexed": true,
          "internalType": "address",
          "name": "operator",
          "type": "address"
        },
        {
          "indexed": false,
          "internalType": "bool",
          "name": "approved",
          "type": "bool"
        }
      ],
      "name": "ApprovalForAll",
      "type": "event"
    },
    {
      "anonymous": false,
      "inputs": [
        {
          "indexed": true,
          "internalType": "address",
          "name": "previousOwner",
          "type": "address"
        },
        {
          "indexed": true,
          "internalType": "address",
          "name": "newOwner",
          "type": "address"
        }
      ],
      "name": "OwnershipTransferred",
      "type": "event"
    },
    {
      "anonymous": false,
      "inputs": [
        {
          "indexed": true,
          "internalType": "address",
          "name": "from",
          "type": "address"
        },
        {
          "indexed": true,
          "internalType": "address",
          "name": "to",
          "type": "address"
        },
        {
          "indexed": true,
          "internalType": "uint256",
          "name": "tokenId",
          "type": "uint256"
        }
      ],
      "name": "Transfer",
      "type": "event"
    },
    {
      "inputs": [
        {
          "internalType": "address",
          "name": "to",
          "type": "address"
        },
        {
          "internalType": "uint256",
          "name": "tokenId",
          "type": "uint256"
        }
      ],
      "name": "approve",
      "outputs": [],
      "stateMutability": "nonpayable",
      "type": "function"
    },
    {
      "inputs": [
        {
          "internalType": "address",
          "name": "owner",
          "type": "address"
        }
      ],
      "name": "balanceOf",
      "outputs": [
        {
          "internalType": "uint256",
          "name": "",
          "type": "uint256"
        }
      ],
      "stateMutability": "view",
      "type": "function"
    },
    {
      "inputs": [
        {
          "internalType": "uint256",
          "name": "tokenId",
          "type": "uint256"
        }
      ],
      "name": "getApproved",
      "outputs": [
        {
          "internalType": "address",
          "name": "",
          "type": "address"
        }
      ],
      "stateMutability": "view",
      "type": "function"
    },
    {
      "inputs": [
        {
          "internalType": "address",
          "name": "owner",
          "type": "address"
        },
        {
          "internalType": "address",
          "name": "operator",
          "type": "address"
        }
      ],
      "name": "isApprovedForAll",
      "outputs": [
        {
          "internalType": "bool",
          "name": "",
          "type": "bool"
        }
      ],
      "stateMutability": "view",
      "type": "function"
    },
    {
      "inputs": [],
      "name": "name",
      "outputs": [
        {
          "internalType": "string",
          "name": "",
          "type": "string"
        }
      ],
      "stateMutability": "view",
      "type": "function"
    },
    {
      "inputs": [],
      "name": "owner",
      "outputs": [
        {
          "internalType": "address",
          "name": "",
          "type": "address"
        }
      ],
      "stateMutability": "view",
      "type": "function"
    },
    {
      "inputs": [
        {
          "internalType": "uint256",
          "name": "tokenId",
          "type": "uint256"
        }
      ],
      "name": "ownerOf",
      "outputs": [
        {
          "internalType": "address",
          "name": "",
          "type": "address"
        }
      ],
      "stateMutability": "view",
      "type": "function"
    },
    {
      "inputs": [],
      "name": "renounceOwnership",
      "outputs": [],
      "stateMutability": "nonpayable",
      "type": "function"
    },
    {
      "inputs": [],
      "name": "safeMint",
      "outputs": [
        {
          "internalType": "uint256",
          "name": "_tokenId",
          "type": "uint256"
        }
      ],
      "stateMutability": "nonpayable",
      "type": "function"
    },
    {
      "inputs": [
        {
          "internalType": "address",
          "name": "from",
          "type": "address"
        },
        {
          "internalType": "address",
          "name": "to",
          "type": "address"
        },
        {
          "internalType": "uint256",
          "name": "tokenId",
          "type": "uint256"
        }
      ],
      "name": "safeTransferFrom",
      "outputs": [],
      "stateMutability": "nonpayable",
      "type": "function"
    },
    {
      "inputs": [
        {
          "internalType": "address",
          "name": "from",
          "type": "address"
        },
        {
          "internalType": "address",
          "name": "to",
          "type": "address"
        },
        {
          "internalType": "uint256",
          "name": "tokenId",
          "type": "uint256"
        },
        {
          "internalType": "bytes",
          "name": "data",
          "type": "bytes"
        }
      ],
      "name": "safeTransferFrom",
      "outputs": [],
      "stateMutability": "nonpayable",
      "type": "function"
    },
    {
      "inputs": [
        {
          "internalType": "address",
          "name": "operator",
          "type": "address"
        },
        {
          "internalType": "bool",
          "name": "approved",
          "type": "bool"
        }
      ],
      "name": "setApprovalForAll",
      "outputs": [],
      "stateMutability": "nonpayable",
      "type": "function"
    },
    {
      "inputs": [
        {
          "internalType": "bytes4",
          "name": "interfaceId",
          "type": "bytes4"
        }
      ],
      "name": "supportsInterface",
      "outputs": [
        {
          "internalType": "bool",
          "name": "",
          "type": "bool"
        }
      ],
      "stateMutability": "view",
      "type": "function"
    },
    {
      "inputs": [],
      "name": "symbol",
      "outputs": [
        {
          "internalType": "string",
          "name": "",
          "type": "string"
        }
      ],
      "stateMutability": "view",
      "type": "function"
    },
    {
      "inputs": [
        {
          "internalType": "uint256",
          "name": "index",
          "type": "uint256"
        }
      ],
      "name": "tokenByIndex",
      "outputs": [
        {
          "internalType": "uint256",
          "name": "",
          "type": "uint256"
        }
      ],
      "stateMutability": "view",
      "type": "function"
    },
    {
      "inputs": [
        {
          "internalType": "address",
          "name": "owner",
          "type": "address"
        },
        {
          "internalType": "uint256",
          "name": "index",
          "type": "uint256"
        }
      ],
      "name": "tokenOfOwnerByIndex",
      "outputs": [
        {
          "internalType": "uint256",
          "name": "",
          "type": "uint256"
        }
      ],
      "stateMutability": "view",
      "type": "function"
    },
    {
      "inputs": [
        {
          "internalType": "uint256",
          "name": "tokenId",
          "type": "uint256"
        }
      ],
      "name": "tokenURI",
      "outputs": [
        {
          "internalType": "string",
          "name": "",
          "type": "string"
        }
      ],
      "stateMutability": "view",
      "type": "function"
    },
    {
      "inputs": [],
      "name": "totalSupply",
      "outputs": [
        {
          "internalType": "uint256",
          "name": "",
          "type": "uint256"
        }
      ],
      "stateMutability": "view",
      "type": "function"
    },
    {
      "inputs": [
        {
          "internalType": "address",
          "name": "from",
          "type": "address"
        },
        {
          "internalType": "address",
          "name": "to",
          "type": "address"
        },
        {
          "internalType": "uint256",
          "name": "tokenId",
          "type": "uint256"
        }
      ],
      "name": "transferFrom",
      "outputs": [],
      "stateMutability": "nonpayable",
      "type": "function"
    },
    {
      "inputs": [
        {
          "internalType": "address",
          "name": "newOwner",
          "type": "address"
        }
      ],
      "name": "transferOwnership",
      "outputs": [],
      "stateMutability": "nonpayable",
      "type": "function"
    }
  ],
  "bytecode": "0x60806040523480156200001157600080fd5b506040518060400160405280601681526020017f44656661756c7450726f6a65637454656d706c617465000000000000000000008152506040518060400160405280600781526020017f44454641554c5400000000000000000000000000000000000000000000000000815250816000908051906020019062000096929190620001a6565b508060019080519060200190620000af929190620001a6565b505050620000d2620000c6620000d860201b60201c565b620000e060201b60201c565b620002bb565b600033905090565b6000600a60009054906101000a900473ffffffffffffffffffffffffffffffffffffffff16905081600a60006101000a81548173ffffffffffffffffffffffffffffffffffffffff021916908373ffffffffffffffffffffffffffffffffffffffff1602179055508173ffffffffffffffffffffffffffffffffffffffff168173ffffffffffffffffffffffffffffffffffffffff167f8be0079c531659141344cd1fd0a4f28419497f9722a3daafe3b4186f6b6457e060405160405180910390a35050565b828054620001b49062000285565b90600052602060002090601f016020900481019282620001d8576000855562000224565b82601f10620001f357805160ff191683800117855562000224565b8280016001018555821562000224579182015b828111156200022357825182559160200191906001019062000206565b5b50905062000233919062000237565b5090565b5b808211156200025257600081600090555060010162000238565b5090565b7f4e487b7100000000000000000000000000000000000000000000000000000000600052602260045260246000fd5b600060028204905060018216806200029e57607f821691505b60208210811415620002b557620002b462000256565b5b50919050565b6130e780620002cb6000396000f3fe608060405234801561001057600080fd5b506004361061012c5760003560e01c80636871ee40116100ad578063a22cb46511610071578063a22cb46514610345578063b88d4fde14610361578063c87b56dd1461037d578063e985e9c5146103ad578063f2fde38b146103dd5761012c565b80636871ee40146102b157806370a08231146102cf578063715018a6146102ff5780638da5cb5b1461030957806395d89b41146103275761012c565b806323b872dd116100f457806323b872dd146101e95780632f745c591461020557806342842e0e146102355780634f6ccce7146102515780636352211e146102815761012c565b806301ffc9a71461013157806306fdde0314610161578063081812fc1461017f578063095ea7b3146101af57806318160ddd146101cb575b600080fd5b61014b60048036038101906101469190611ff5565b6103f9565b604051610158919061203d565b60405180910390f35b610169610473565b60405161017691906120f1565b60405180910390f35b61019960048036038101906101949190612149565b610505565b6040516101a691906121b7565b60405180910390f35b6101c960048036038101906101c491906121fe565b61054b565b005b6101d3610663565b6040516101e0919061224d565b60405180910390f35b61020360048036038101906101fe9190612268565b610670565b005b61021f600480360381019061021a91906121fe565b6106d0565b60405161022c919061224d565b60405180910390f35b61024f600480360381019061024a9190612268565b610775565b005b61026b60048036038101906102669190612149565b610795565b604051610278919061224d565b60405180910390f35b61029b60048036038101906102969190612149565b610806565b6040516102a891906121b7565b60405180910390f35b6102b96108b8565b6040516102c6919061224d565b60405180910390f35b6102e960048036038101906102e491906122bb565b6108e5565b6040516102f6919061224d565b60405180910390f35b61030761099d565b005b6103116109b1565b60405161031e91906121b7565b60405180910390f35b61032f6109db565b60405161033c91906120f1565b60405180910390f35b61035f600480360381019061035a9190612314565b610a6d565b005b61037b60048036038101906103769190612489565b610a83565b005b61039760048036038101906103929190612149565b610ae5565b6040516103a491906120f1565b60405180910390f35b6103c760048036038101906103c2919061250c565b610b4d565b6040516103d4919061203d565b60405180910390f35b6103f760048036038101906103f291906122bb565b610be1565b005b60007f6871ee40000000000000000000000000000000000000000000000000000000007bffffffffffffffffffffffffffffffffffffffffffffffffffffffff1916827bffffffffffffffffffffffffffffffffffffffffffffffffffffffff1916148061046c575061046b82610c65565b5b9050919050565b6060600080546104829061257b565b80601f01602080910402602001604051908101604052809291908181526020018280546104ae9061257b565b80156104fb5780601f106104d0576101008083540402835291602001916104fb565b820191906000526020600020905b8154815290600101906020018083116104de57829003601f168201915b5050505050905090565b600061051082610cdf565b6004600083815260200190815260200160002060009054906101000a900473ffffffffffffffffffffffffffffffffffffffff169050919050565b600061055682610806565b90508073ffffffffffffffffffffffffffffffffffffffff168373ffffffffffffffffffffffffffffffffffffffff1614156105c7576040517f08c379a00000000000000000000000000000000000000000000000000000000081526004016105be9061261f565b60405180910390fd5b8073ffffffffffffffffffffffffffffffffffffffff166105e6610d2a565b73ffffffffffffffffffffffffffffffffffffffff16148061061557506106148161060f610d2a565b610b4d565b5b610654576040517f08c379a000000000000000000000000000000000000000000000000000000000815260040161064b906126b1565b60405180910390fd5b61065e8383610d32565b505050565b6000600880549050905090565b61068161067b610d2a565b82610deb565b6106c0576040517f08c379a00000000000000000000000000000000000000000000000000000000081526004016106b790612743565b60405180910390fd5b6106cb838383610e80565b505050565b60006106db836108e5565b821061071c576040517f08c379a0000000000000000000000000000000000000000000000000000000008152600401610713906127d5565b60405180910390fd5b600660008473ffffffffffffffffffffffffffffffffffffffff1673ffffffffffffffffffffffffffffffffffffffff168152602001908152602001600020600083815260200190815260200160002054905092915050565b61079083838360405180602001604052806000815250610a83565b505050565b600061079f610663565b82106107e0576040517f08c379a00000000000000000000000000000000000000000000000000000000081526004016107d790612867565b60405180910390fd5b600882815481106107f4576107f3612887565b5b90600052602060002001549050919050565b6000806002600084815260200190815260200160002060009054906101000a900473ffffffffffffffffffffffffffffffffffffffff169050600073ffffffffffffffffffffffffffffffffffffffff168173ffffffffffffffffffffffffffffffffffffffff1614156108af576040517f08c379a00000000000000000000000000000000000000000000000000000000081526004016108a690612902565b60405180910390fd5b80915050919050565b60006108c26110e7565b6108cc600b611165565b90506108d8600b611173565b6108e23382611189565b90565b60008073ffffffffffffffffffffffffffffffffffffffff168273ffffffffffffffffffffffffffffffffffffffff161415610956576040517f08c379a000000000000000000000000000000000000000000000000000000000815260040161094d90612994565b60405180910390fd5b600360008373ffffffffffffffffffffffffffffffffffffffff1673ffffffffffffffffffffffffffffffffffffffff168152602001908152602001600020549050919050565b6109a56110e7565b6109af60006111a7565b565b6000600a60009054906101000a900473ffffffffffffffffffffffffffffffffffffffff16905090565b6060600180546109ea9061257b565b80601f0160208091040260200160405190810160405280929190818152602001828054610a169061257b565b8015610a635780601f10610a3857610100808354040283529160200191610a63565b820191906000526020600020905b815481529060010190602001808311610a4657829003601f168201915b5050505050905090565b610a7f610a78610d2a565b838361126d565b5050565b610a94610a8e610d2a565b83610deb565b610ad3576040517f08c379a0000000000000000000000000000000000000000000000000000000008152600401610aca90612743565b60405180910390fd5b610adf848484846113da565b50505050565b6060610af082610cdf565b6000610afa611436565b90506000815111610b1a5760405180602001604052806000815250610b45565b80610b248461144d565b604051602001610b359291906129f0565b6040516020818303038152906040525b915050919050565b6000600560008473ffffffffffffffffffffffffffffffffffffffff1673ffffffffffffffffffffffffffffffffffffffff16815260200190815260200160002060008373ffffffffffffffffffffffffffffffffffffffff1673ffffffffffffffffffffffffffffffffffffffff16815260200190815260200160002060009054906101000a900460ff16905092915050565b610be96110e7565b600073ffffffffffffffffffffffffffffffffffffffff168173ffffffffffffffffffffffffffffffffffffffff161415610c59576040517f08c379a0000000000000000000000000000000000000000000000000000000008152600401610c5090612a86565b60405180910390fd5b610c62816111a7565b50565b60007f780e9d63000000000000000000000000000000000000000000000000000000007bffffffffffffffffffffffffffffffffffffffffffffffffffffffff1916827bffffffffffffffffffffffffffffffffffffffffffffffffffffffff19161480610cd85750610cd7826115ae565b5b9050919050565b610ce881611690565b610d27576040517f08c379a0000000000000000000000000000000000000000000000000000000008152600401610d1e90612902565b60405180910390fd5b50565b600033905090565b816004600083815260200190815260200160002060006101000a81548173ffffffffffffffffffffffffffffffffffffffff021916908373ffffffffffffffffffffffffffffffffffffffff160217905550808273ffffffffffffffffffffffffffffffffffffffff16610da583610806565b73ffffffffffffffffffffffffffffffffffffffff167f8c5be1e5ebec7d5bd14f71427d1e84f3dd0314c0f7b2291e5b200ac8c7c3b92560405160405180910390a45050565b600080610df783610806565b90508073ffffffffffffffffffffffffffffffffffffffff168473ffffffffffffffffffffffffffffffffffffffff161480610e395750610e388185610b4d565b5b80610e7757508373ffffffffffffffffffffffffffffffffffffffff16610e5f84610505565b73ffffffffffffffffffffffffffffffffffffffff16145b91505092915050565b8273ffffffffffffffffffffffffffffffffffffffff16610ea082610806565b73ffffffffffffffffffffffffffffffffffffffff1614610ef6576040517f08c379a0000000000000000000000000000000000000000000000000000000008152600401610eed90612b18565b60405180910390fd5b600073ffffffffffffffffffffffffffffffffffffffff168273ffffffffffffffffffffffffffffffffffffffff161415610f66576040517f08c379a0000000000000000000000000000000000000000000000000000000008152600401610f5d90612baa565b60405180910390fd5b610f718383836116fc565b610f7c600082610d32565b6001600360008573ffffffffffffffffffffffffffffffffffffffff1673ffffffffffffffffffffffffffffffffffffffff1681526020019081526020016000206000828254610fcc9190612bf9565b925050819055506001600360008473ffffffffffffffffffffffffffffffffffffffff1673ffffffffffffffffffffffffffffffffffffffff16815260200190815260200160002060008282546110239190612c2d565b92505081905550816002600083815260200190815260200160002060006101000a81548173ffffffffffffffffffffffffffffffffffffffff021916908373ffffffffffffffffffffffffffffffffffffffff160217905550808273ffffffffffffffffffffffffffffffffffffffff168473ffffffffffffffffffffffffffffffffffffffff167fddf252ad1be2c89b69c2b068fc378daa952ba7f163c4a11628f55a4df523b3ef60405160405180910390a46110e283838361170c565b505050565b6110ef610d2a565b73ffffffffffffffffffffffffffffffffffffffff1661110d6109b1565b73ffffffffffffffffffffffffffffffffffffffff1614611163576040517f08c379a000000000000000000000000000000000000000000000000000000000815260040161115a90612ccf565b60405180910390fd5b565b600081600001549050919050565b6001816000016000828254019250508190555050565b6111a3828260405180602001604052806000815250611711565b5050565b6000600a60009054906101000a900473ffffffffffffffffffffffffffffffffffffffff16905081600a60006101000a81548173ffffffffffffffffffffffffffffffffffffffff021916908373ffffffffffffffffffffffffffffffffffffffff1602179055508173ffffffffffffffffffffffffffffffffffffffff168173ffffffffffffffffffffffffffffffffffffffff167f8be0079c531659141344cd1fd0a4f28419497f9722a3daafe3b4186f6b6457e060405160405180910390a35050565b8173ffffffffffffffffffffffffffffffffffffffff168373ffffffffffffffffffffffffffffffffffffffff1614156112dc576040517f08c379a00000000000000000000000000000000000000000000000000000000081526004016112d390612d3b565b60405180910390fd5b80600560008573ffffffffffffffffffffffffffffffffffffffff1673ffffffffffffffffffffffffffffffffffffffff16815260200190815260200160002060008473ffffffffffffffffffffffffffffffffffffffff1673ffffffffffffffffffffffffffffffffffffffff16815260200190815260200160002060006101000a81548160ff0219169083151502179055508173ffffffffffffffffffffffffffffffffffffffff168373ffffffffffffffffffffffffffffffffffffffff167f17307eab39ab6107e8899845ad3d59bd9653f200f220920489ca2b5937696c31836040516113cd919061203d565b60405180910390a3505050565b6113e5848484610e80565b6113f18484848461176c565b611430576040517f08c379a000000000000000000000000000000000000000000000000000000000815260040161142790612dcd565b60405180910390fd5b50505050565b606060405180602001604052806000815250905090565b60606000821415611495576040518060400160405280600181526020017f300000000000000000000000000000000000000000000000000000000000000081525090506115a9565b600082905060005b600082146114c75780806114b090612ded565b915050600a826114c09190612e65565b915061149d565b60008167ffffffffffffffff8111156114e3576114e261235e565b5b6040519080825280601f01601f1916602001820160405280156115155781602001600182028036833780820191505090505b5090505b600085146115a25760018261152e9190612bf9565b9150600a8561153d9190612e96565b60306115499190612c2d565b60f81b81838151811061155f5761155e612887565b5b60200101907effffffffffffffffffffffffffffffffffffffffffffffffffffffffffffff1916908160001a905350600a8561159b9190612e65565b9450611519565b8093505050505b919050565b60007f80ac58cd000000000000000000000000000000000000000000000000000000007bffffffffffffffffffffffffffffffffffffffffffffffffffffffff1916827bffffffffffffffffffffffffffffffffffffffffffffffffffffffff1916148061167957507f5b5e139f000000000000000000000000000000000000000000000000000000007bffffffffffffffffffffffffffffffffffffffffffffffffffffffff1916827bffffffffffffffffffffffffffffffffffffffffffffffffffffffff1916145b80611689575061168882611903565b5b9050919050565b60008073ffffffffffffffffffffffffffffffffffffffff166002600084815260200190815260200160002060009054906101000a900473ffffffffffffffffffffffffffffffffffffffff1673ffffffffffffffffffffffffffffffffffffffff1614159050919050565b61170783838361196d565b505050565b505050565b61171b8383611a81565b611728600084848461176c565b611767576040517f08c379a000000000000000000000000000000000000000000000000000000000815260040161175e90612dcd565b60405180910390fd5b505050565b600061178d8473ffffffffffffffffffffffffffffffffffffffff16611c5b565b156118f6578373ffffffffffffffffffffffffffffffffffffffff1663150b7a026117b6610d2a565b8786866040518563ffffffff1660e01b81526004016117d89493929190612f1c565b602060405180830381600087803b1580156117f257600080fd5b505af192505050801561182357506040513d601f19601f820116820180604052508101906118209190612f7d565b60015b6118a6573d8060008114611853576040519150601f19603f3d011682016040523d82523d6000602084013e611858565b606091505b5060008151141561189e576040517f08c379a000000000000000000000000000000000000000000000000000000000815260040161189590612dcd565b60405180910390fd5b805181602001fd5b63150b7a0260e01b7bffffffffffffffffffffffffffffffffffffffffffffffffffffffff1916817bffffffffffffffffffffffffffffffffffffffffffffffffffffffff1916149150506118fb565b600190505b949350505050565b60007f01ffc9a7000000000000000000000000000000000000000000000000000000007bffffffffffffffffffffffffffffffffffffffffffffffffffffffff1916827bffffffffffffffffffffffffffffffffffffffffffffffffffffffff1916149050919050565b611978838383611c7e565b600073ffffffffffffffffffffffffffffffffffffffff168373ffffffffffffffffffffffffffffffffffffffff1614156119bb576119b681611c83565b6119fa565b8173ffffffffffffffffffffffffffffffffffffffff168373ffffffffffffffffffffffffffffffffffffffff16146119f9576119f88382611ccc565b5b5b600073ffffffffffffffffffffffffffffffffffffffff168273ffffffffffffffffffffffffffffffffffffffff161415611a3d57611a3881611e39565b611a7c565b8273ffffffffffffffffffffffffffffffffffffffff168273ffffffffffffffffffffffffffffffffffffffff1614611a7b57611a7a8282611f0a565b5b5b505050565b600073ffffffffffffffffffffffffffffffffffffffff168273ffffffffffffffffffffffffffffffffffffffff161415611af1576040517f08c379a0000000000000000000000000000000000000000000000000000000008152600401611ae890612ff6565b60405180910390fd5b611afa81611690565b15611b3a576040517f08c379a0000000000000000000000000000000000000000000000000000000008152600401611b3190613062565b60405180910390fd5b611b46600083836116fc565b6001600360008473ffffffffffffffffffffffffffffffffffffffff1673ffffffffffffffffffffffffffffffffffffffff1681526020019081526020016000206000828254611b969190612c2d565b92505081905550816002600083815260200190815260200160002060006101000a81548173ffffffffffffffffffffffffffffffffffffffff021916908373ffffffffffffffffffffffffffffffffffffffff160217905550808273ffffffffffffffffffffffffffffffffffffffff16600073ffffffffffffffffffffffffffffffffffffffff167fddf252ad1be2c89b69c2b068fc378daa952ba7f163c4a11628f55a4df523b3ef60405160405180910390a4611c576000838361170c565b5050565b6000808273ffffffffffffffffffffffffffffffffffffffff163b119050919050565b505050565b6008805490506009600083815260200190815260200160002081905550600881908060018154018082558091505060019003906000526020600020016000909190919091505550565b60006001611cd9846108e5565b611ce39190612bf9565b9050600060076000848152602001908152602001600020549050818114611dc8576000600660008673ffffffffffffffffffffffffffffffffffffffff1673ffffffffffffffffffffffffffffffffffffffff168152602001908152602001600020600084815260200190815260200160002054905080600660008773ffffffffffffffffffffffffffffffffffffffff1673ffffffffffffffffffffffffffffffffffffffff168152602001908152602001600020600084815260200190815260200160002081905550816007600083815260200190815260200160002081905550505b6007600084815260200190815260200160002060009055600660008573ffffffffffffffffffffffffffffffffffffffff1673ffffffffffffffffffffffffffffffffffffffff16815260200190815260200160002060008381526020019081526020016000206000905550505050565b60006001600880549050611e4d9190612bf9565b9050600060096000848152602001908152602001600020549050600060088381548110611e7d57611e7c612887565b5b906000526020600020015490508060088381548110611e9f57611e9e612887565b5b906000526020600020018190555081600960008381526020019081526020016000208190555060096000858152602001908152602001600020600090556008805480611eee57611eed613082565b5b6001900381819060005260206000200160009055905550505050565b6000611f15836108e5565b905081600660008573ffffffffffffffffffffffffffffffffffffffff1673ffffffffffffffffffffffffffffffffffffffff168152602001908152602001600020600083815260200190815260200160002081905550806007600084815260200190815260200160002081905550505050565b6000604051905090565b600080fd5b600080fd5b60007fffffffff0000000000000000000000000000000000000000000000000000000082169050919050565b611fd281611f9d565b8114611fdd57600080fd5b50565b600081359050611fef81611fc9565b92915050565b60006020828403121561200b5761200a611f93565b5b600061201984828501611fe0565b91505092915050565b60008115159050919050565b61203781612022565b82525050565b6000602082019050612052600083018461202e565b92915050565b600081519050919050565b600082825260208201905092915050565b60005b83811015612092578082015181840152602081019050612077565b838111156120a1576000848401525b50505050565b6000601f19601f8301169050919050565b60006120c382612058565b6120cd8185612063565b93506120dd818560208601612074565b6120e6816120a7565b840191505092915050565b6000602082019050818103600083015261210b81846120b8565b905092915050565b6000819050919050565b61212681612113565b811461213157600080fd5b50565b6000813590506121438161211d565b92915050565b60006020828403121561215f5761215e611f93565b5b600061216d84828501612134565b91505092915050565b600073ffffffffffffffffffffffffffffffffffffffff82169050919050565b60006121a182612176565b9050919050565b6121b181612196565b82525050565b60006020820190506121cc60008301846121a8565b92915050565b6121db81612196565b81146121e657600080fd5b50565b6000813590506121f8816121d2565b92915050565b6000806040838503121561221557612214611f93565b5b6000612223858286016121e9565b925050602061223485828601612134565b9150509250929050565b61224781612113565b82525050565b6000602082019050612262600083018461223e565b92915050565b60008060006060848603121561228157612280611f93565b5b600061228f868287016121e9565b93505060206122a0868287016121e9565b92505060406122b186828701612134565b9150509250925092565b6000602082840312156122d1576122d0611f93565b5b60006122df848285016121e9565b91505092915050565b6122f181612022565b81146122fc57600080fd5b50565b60008135905061230e816122e8565b92915050565b6000806040838503121561232b5761232a611f93565b5b6000612339858286016121e9565b925050602061234a858286016122ff565b9150509250929050565b600080fd5b600080fd5b7f4e487b7100000000000000000000000000000000000000000000000000000000600052604160045260246000fd5b612396826120a7565b810181811067ffffffffffffffff821117156123b5576123b461235e565b5b80604052505050565b60006123c8611f89565b90506123d4828261238d565b919050565b600067ffffffffffffffff8211156123f4576123f361235e565b5b6123fd826120a7565b9050602081019050919050565b82818337600083830152505050565b600061242c612427846123d9565b6123be565b90508281526020810184848401111561244857612447612359565b5b61245384828561240a565b509392505050565b600082601f8301126124705761246f612354565b5b8135612480848260208601612419565b91505092915050565b600080600080608085870312156124a3576124a2611f93565b5b60006124b1878288016121e9565b94505060206124c2878288016121e9565b93505060406124d387828801612134565b925050606085013567ffffffffffffffff8111156124f4576124f3611f98565b5b6125008782880161245b565b91505092959194509250565b6000806040838503121561252357612522611f93565b5b6000612531858286016121e9565b9250506020612542858286016121e9565b9150509250929050565b7f4e487b7100000000000000000000000000000000000000000000000000000000600052602260045260246000fd5b6000600282049050600182168061259357607f821691505b602082108114156125a7576125a661254c565b5b50919050565b7f4552433732313a20617070726f76616c20746f2063757272656e74206f776e6560008201527f7200000000000000000000000000000000000000000000000000000000000000602082015250565b6000612609602183612063565b9150612614826125ad565b604082019050919050565b60006020820190508181036000830152612638816125fc565b9050919050565b7f4552433732313a20617070726f76652063616c6c6572206973206e6f7420746f60008201527f6b656e206f776e6572206e6f7220617070726f76656420666f7220616c6c0000602082015250565b600061269b603e83612063565b91506126a68261263f565b604082019050919050565b600060208201905081810360008301526126ca8161268e565b9050919050565b7f4552433732313a2063616c6c6572206973206e6f7420746f6b656e206f776e6560008201527f72206e6f7220617070726f766564000000000000000000000000000000000000602082015250565b600061272d602e83612063565b9150612738826126d1565b604082019050919050565b6000602082019050818103600083015261275c81612720565b9050919050565b7f455243373231456e756d657261626c653a206f776e657220696e646578206f7560008201527f74206f6620626f756e6473000000000000000000000000000000000000000000602082015250565b60006127bf602b83612063565b91506127ca82612763565b604082019050919050565b600060208201905081810360008301526127ee816127b2565b9050919050565b7f455243373231456e756d657261626c653a20676c6f62616c20696e646578206f60008201527f7574206f6620626f756e64730000000000000000000000000000000000000000602082015250565b6000612851602c83612063565b915061285c826127f5565b604082019050919050565b6000602082019050818103600083015261288081612844565b9050919050565b7f4e487b7100000000000000000000000000000000000000000000000000000000600052603260045260246000fd5b7f4552433732313a20696e76616c696420746f6b656e2049440000000000000000600082015250565b60006128ec601883612063565b91506128f7826128b6565b602082019050919050565b6000602082019050818103600083015261291b816128df565b9050919050565b7f4552433732313a2061646472657373207a65726f206973206e6f74206120766160008201527f6c6964206f776e65720000000000000000000000000000000000000000000000602082015250565b600061297e602983612063565b915061298982612922565b604082019050919050565b600060208201905081810360008301526129ad81612971565b9050919050565b600081905092915050565b60006129ca82612058565b6129d481856129b4565b93506129e4818560208601612074565b80840191505092915050565b60006129fc82856129bf565b9150612a0882846129bf565b91508190509392505050565b7f4f776e61626c653a206e6577206f776e657220697320746865207a65726f206160008201527f6464726573730000000000000000000000000000000000000000000000000000602082015250565b6000612a70602683612063565b9150612a7b82612a14565b604082019050919050565b60006020820190508181036000830152612a9f81612a63565b9050919050565b7f4552433732313a207472616e736665722066726f6d20696e636f72726563742060008201527f6f776e6572000000000000000000000000000000000000000000000000000000602082015250565b6000612b02602583612063565b9150612b0d82612aa6565b604082019050919050565b60006020820190508181036000830152612b3181612af5565b9050919050565b7f4552433732313a207472616e7366657220746f20746865207a65726f2061646460008201527f7265737300000000000000000000000000000000000000000000000000000000602082015250565b6000612b94602483612063565b9150612b9f82612b38565b604082019050919050565b60006020820190508181036000830152612bc381612b87565b9050919050565b7f4e487b7100000000000000000000000000000000000000000000000000000000600052601160045260246000fd5b6000612c0482612113565b9150612c0f83612113565b925082821015612c2257612c21612bca565b5b828203905092915050565b6000612c3882612113565b9150612c4383612113565b9250827fffffffffffffffffffffffffffffffffffffffffffffffffffffffffffffffff03821115612c7857612c77612bca565b5b828201905092915050565b7f4f776e61626c653a2063616c6c6572206973206e6f7420746865206f776e6572600082015250565b6000612cb9602083612063565b9150612cc482612c83565b602082019050919050565b60006020820190508181036000830152612ce881612cac565b9050919050565b7f4552433732313a20617070726f766520746f2063616c6c657200000000000000600082015250565b6000612d25601983612063565b9150612d3082612cef565b602082019050919050565b60006020820190508181036000830152612d5481612d18565b9050919050565b7f4552433732313a207472616e7366657220746f206e6f6e20455243373231526560008201527f63656976657220696d706c656d656e7465720000000000000000000000000000602082015250565b6000612db7603283612063565b9150612dc282612d5b565b604082019050919050565b60006020820190508181036000830152612de681612daa565b9050919050565b6000612df882612113565b91507fffffffffffffffffffffffffffffffffffffffffffffffffffffffffffffffff821415612e2b57612e2a612bca565b5b600182019050919050565b7f4e487b7100000000000000000000000000000000000000000000000000000000600052601260045260246000fd5b6000612e7082612113565b9150612e7b83612113565b925082612e8b57612e8a612e36565b5b828204905092915050565b6000612ea182612113565b9150612eac83612113565b925082612ebc57612ebb612e36565b5b828206905092915050565b600081519050919050565b600082825260208201905092915050565b6000612eee82612ec7565b612ef88185612ed2565b9350612f08818560208601612074565b612f11816120a7565b840191505092915050565b6000608082019050612f3160008301876121a8565b612f3e60208301866121a8565b612f4b604083018561223e565b8181036060830152612f5d8184612ee3565b905095945050505050565b600081519050612f7781611fc9565b92915050565b600060208284031215612f9357612f92611f93565b5b6000612fa184828501612f68565b91505092915050565b7f4552433732313a206d696e7420746f20746865207a65726f2061646472657373600082015250565b6000612fe0602083612063565b9150612feb82612faa565b602082019050919050565b6000602082019050818103600083015261300f81612fd3565b9050919050565b7f4552433732313a20746f6b656e20616c7265616479206d696e74656400000000600082015250565b600061304c601c83612063565b915061305782613016565b602082019050919050565b6000602082019050818103600083015261307b8161303f565b9050919050565b7f4e487b7100000000000000000000000000000000000000000000000000000000600052603160045260246000fdfea26469706673582212200f29378d6672296cb23cbc9b47d406683ac121fb06189db7ec046b1ec8776c8d64736f6c63430008090033",
  "linkReferences": {},
  "deployedLinkReferences": {}
}