{
  "_format": "hh-sol-artifact-1",
  "contractName": "Manager",
  "sourceName": "contracts/Manager.sol",
  "abi": [
    {
      "inputs": [],
      "stateMutability": "nonpayable",
      "type": "constructor"
    },
    {
      "anonymous": false,
      "inputs": [
        {
          "indexed": true,
          "internalType": "bytes32",
          "name": "role",
          "type": "bytes32"
        },
        {
          "indexed": true,
          "internalType": "bytes32",
          "name": "previousAdminRole",
          "type": "bytes32"
        },
        {
          "indexed": true,
          "internalType": "bytes32",
          "name": "newAdminRole",
          "type": "bytes32"
        }
      ],
      "name": "RoleAdminChanged",
      "type": "event"
    },
    {
      "anonymous": false,
      "inputs": [
        {
          "indexed": true,
          "internalType": "bytes32",
          "name": "role",
          "type": "bytes32"
        },
        {
          "indexed": true,
          "internalType": "address",
          "name": "account",
          "type": "address"
        },
        {
          "indexed": true,
          "internalType": "address",
          "name": "sender",
          "type": "address"
        }
      ],
      "name": "RoleGranted",
      "type": "event"
    },
    {
      "anonymous": false,
      "inputs": [
        {
          "indexed": true,
          "internalType": "bytes32",
          "name": "role",
          "type": "bytes32"
        },
        {
          "indexed": true,
          "internalType": "address",
          "name": "account",
          "type": "address"
        },
        {
          "indexed": true,
          "internalType": "address",
          "name": "sender",
          "type": "address"
        }
      ],
      "name": "RoleRevoked",
      "type": "event"
    },
    {
      "inputs": [],
      "name": "DEFAULT_ADMIN_ROLE",
      "outputs": [
        {
          "internalType": "bytes32",
          "name": "",
          "type": "bytes32"
        }
      ],
      "stateMutability": "view",
      "type": "function"
    },
    {
      "inputs": [],
      "name": "PARTNER_ROLE",
      "outputs": [
        {
          "internalType": "bytes32",
          "name": "",
          "type": "bytes32"
        }
      ],
      "stateMutability": "view",
      "type": "function"
    },
    {
      "inputs": [],
      "name": "UNKOWN_ROLE",
      "outputs": [
        {
          "internalType": "bytes32",
          "name": "",
          "type": "bytes32"
        }
      ],
      "stateMutability": "view",
      "type": "function"
    },
    {
      "inputs": [],
      "name": "getRole",
      "outputs": [
        {
          "internalType": "string",
          "name": "",
          "type": "string"
        }
      ],
      "stateMutability": "view",
      "type": "function"
    },
    {
      "inputs": [
        {
          "internalType": "bytes32",
          "name": "role",
          "type": "bytes32"
        }
      ],
      "name": "getRoleAdmin",
      "outputs": [
        {
          "internalType": "bytes32",
          "name": "",
          "type": "bytes32"
        }
      ],
      "stateMutability": "view",
      "type": "function"
    },
    {
      "inputs": [
        {
          "internalType": "bytes32",
          "name": "role",
          "type": "bytes32"
        },
        {
          "internalType": "address",
          "name": "account",
          "type": "address"
        }
      ],
      "name": "grantRole",
      "outputs": [],
      "stateMutability": "nonpayable",
      "type": "function"
    },
    {
      "inputs": [
        {
          "internalType": "bytes32",
          "name": "role",
          "type": "bytes32"
        },
        {
          "internalType": "address",
          "name": "account",
          "type": "address"
        }
      ],
      "name": "hasRole",
      "outputs": [
        {
          "internalType": "bool",
          "name": "",
          "type": "bool"
        }
      ],
      "stateMutability": "view",
      "type": "function"
    },
    {
      "inputs": [
        {
          "internalType": "bytes32",
          "name": "role",
          "type": "bytes32"
        },
        {
          "internalType": "address",
          "name": "account",
          "type": "address"
        }
      ],
      "name": "renounceRole",
      "outputs": [],
      "stateMutability": "nonpayable",
      "type": "function"
    },
    {
      "inputs": [
        {
          "internalType": "bytes32",
          "name": "role",
          "type": "bytes32"
        },
        {
          "internalType": "address",
          "name": "account",
          "type": "address"
        }
      ],
      "name": "revokeRole",
      "outputs": [],
      "stateMutability": "nonpayable",
      "type": "function"
    },
    {
      "inputs": [
        {
          "internalType": "bytes4",
          "name": "interfaceId",
          "type": "bytes4"
        }
      ],
      "name": "supportsInterface",
      "outputs": [
        {
          "internalType": "bool",
          "name": "",
          "type": "bool"
        }
      ],
      "stateMutability": "view",
      "type": "function"
    }
  ],
  "bytecode": "0x608060405234801561001057600080fd5b506100246000801b3361002960201b60201c565b610187565b610039828261011560201b60201c565b61011157600160008084815260200190815260200160002060000160008373ffffffffffffffffffffffffffffffffffffffff1673ffffffffffffffffffffffffffffffffffffffff16815260200190815260200160002060006101000a81548160ff0219169083151502179055506100b661017f60201b60201c565b73ffffffffffffffffffffffffffffffffffffffff168173ffffffffffffffffffffffffffffffffffffffff16837f2f8788117e7eff1d82e926ec794901d17c78024a50270940304540a733656f0d60405160405180910390a45b5050565b600080600084815260200190815260200160002060000160008373ffffffffffffffffffffffffffffffffffffffff1673ffffffffffffffffffffffffffffffffffffffff16815260200190815260200160002060009054906101000a900460ff16905092915050565b600033905090565b611088806101966000396000f3fe608060405234801561001057600080fd5b506004361061009e5760003560e01c806391d148541161006657806391d1485414610159578063a217fddf14610189578063b622e816146101a7578063d547741f146101c5578063fde08174146101e15761009e565b806301ffc9a7146100a3578063248a9ca3146100d35780632513e2b9146101035780632f2ff15d1461012157806336568abe1461013d575b600080fd5b6100bd60048036038101906100b89190610a8c565b6101ff565b6040516100ca9190610ad4565b60405180910390f35b6100ed60048036038101906100e89190610b25565b610279565b6040516100fa9190610b61565b60405180910390f35b61010b610298565b6040516101189190610b61565b60405180910390f35b61013b60048036038101906101369190610bda565b6102bc565b005b61015760048036038101906101529190610bda565b6102dd565b005b610173600480360381019061016e9190610bda565b610360565b6040516101809190610ad4565b60405180910390f35b6101916103ca565b60405161019e9190610b61565b60405180910390f35b6101af6103d1565b6040516101bc9190610b61565b60405180910390f35b6101df60048036038101906101da9190610bda565b6103f5565b005b6101e9610416565b6040516101f69190610cb3565b60405180910390f35b60007f7965db0b000000000000000000000000000000000000000000000000000000007bffffffffffffffffffffffffffffffffffffffffffffffffffffffff1916827bffffffffffffffffffffffffffffffffffffffffffffffffffffffff1916148061027257506102718261050f565b5b9050919050565b6000806000838152602001908152602001600020600101549050919050565b7f2f049b28665abd79bc83d9aa564dba6b787ac439dba27b48e163a83befa9b26081565b6102c582610279565b6102ce81610579565b6102d8838361058d565b505050565b6102e561066d565b73ffffffffffffffffffffffffffffffffffffffff168173ffffffffffffffffffffffffffffffffffffffff1614610352576040517f08c379a000000000000000000000000000000000000000000000000000000000815260040161034990610d47565b60405180910390fd5b61035c8282610675565b5050565b600080600084815260200190815260200160002060000160008373ffffffffffffffffffffffffffffffffffffffff1673ffffffffffffffffffffffffffffffffffffffff16815260200190815260200160002060009054906101000a900460ff16905092915050565b6000801b81565b7f8b302b7db5491169fb8f5108ca5aab760ddf7e6ca782cee016efae5179064ff581565b6103fe82610279565b61040781610579565b6104118383610675565b505050565b60606104256000801b33610360565b15610467576040518060400160405280601281526020017f44454641554c545f41444d494e5f524f4c450000000000000000000000000000815250905061050c565b6104917f2f049b28665abd79bc83d9aa564dba6b787ac439dba27b48e163a83befa9b26033610360565b156104d3576040518060400160405280600c81526020017f504152544e45525f524f4c450000000000000000000000000000000000000000815250905061050c565b6040518060400160405280600b81526020017f554e4b4f574e5f524f4c4500000000000000000000000000000000000000000081525090505b90565b60007f01ffc9a7000000000000000000000000000000000000000000000000000000007bffffffffffffffffffffffffffffffffffffffffffffffffffffffff1916827bffffffffffffffffffffffffffffffffffffffffffffffffffffffff1916149050919050565b61058a8161058561066d565b610756565b50565b6105978282610360565b61066957600160008084815260200190815260200160002060000160008373ffffffffffffffffffffffffffffffffffffffff1673ffffffffffffffffffffffffffffffffffffffff16815260200190815260200160002060006101000a81548160ff02191690831515021790555061060e61066d565b73ffffffffffffffffffffffffffffffffffffffff168173ffffffffffffffffffffffffffffffffffffffff16837f2f8788117e7eff1d82e926ec794901d17c78024a50270940304540a733656f0d60405160405180910390a45b5050565b600033905090565b61067f8282610360565b1561075257600080600084815260200190815260200160002060000160008373ffffffffffffffffffffffffffffffffffffffff1673ffffffffffffffffffffffffffffffffffffffff16815260200190815260200160002060006101000a81548160ff0219169083151502179055506106f761066d565b73ffffffffffffffffffffffffffffffffffffffff168173ffffffffffffffffffffffffffffffffffffffff16837ff6391f5c32d9c69d2a47ea670b442974b53935d1edc7fd64eb21e047a839171b60405160405180910390a45b5050565b6107608282610360565b6107ef576107858173ffffffffffffffffffffffffffffffffffffffff1660146107f3565b6107938360001c60206107f3565b6040516020016107a4929190610e3b565b6040516020818303038152906040526040517f08c379a00000000000000000000000000000000000000000000000000000000081526004016107e69190610cb3565b60405180910390fd5b5050565b6060600060028360026108069190610eae565b6108109190610f08565b67ffffffffffffffff81111561082957610828610f5e565b5b6040519080825280601f01601f19166020018201604052801561085b5781602001600182028036833780820191505090505b5090507f30000000000000000000000000000000000000000000000000000000000000008160008151811061089357610892610f8d565b5b60200101907effffffffffffffffffffffffffffffffffffffffffffffffffffffffffffff1916908160001a9053507f7800000000000000000000000000000000000000000000000000000000000000816001815181106108f7576108f6610f8d565b5b60200101907effffffffffffffffffffffffffffffffffffffffffffffffffffffffffffff1916908160001a905350600060018460026109379190610eae565b6109419190610f08565b90505b60018111156109e1577f3031323334353637383961626364656600000000000000000000000000000000600f86166010811061098357610982610f8d565b5b1a60f81b82828151811061099a57610999610f8d565b5b60200101907effffffffffffffffffffffffffffffffffffffffffffffffffffffffffffff1916908160001a905350600485901c9450806109da90610fbc565b9050610944565b5060008414610a25576040517f08c379a0000000000000000000000000000000000000000000000000000000008152600401610a1c90611032565b60405180910390fd5b8091505092915050565b600080fd5b60007fffffffff0000000000000000000000000000000000000000000000000000000082169050919050565b610a6981610a34565b8114610a7457600080fd5b50565b600081359050610a8681610a60565b92915050565b600060208284031215610aa257610aa1610a2f565b5b6000610ab084828501610a77565b91505092915050565b60008115159050919050565b610ace81610ab9565b82525050565b6000602082019050610ae96000830184610ac5565b92915050565b6000819050919050565b610b0281610aef565b8114610b0d57600080fd5b50565b600081359050610b1f81610af9565b92915050565b600060208284031215610b3b57610b3a610a2f565b5b6000610b4984828501610b10565b91505092915050565b610b5b81610aef565b82525050565b6000602082019050610b766000830184610b52565b92915050565b600073ffffffffffffffffffffffffffffffffffffffff82169050919050565b6000610ba782610b7c565b9050919050565b610bb781610b9c565b8114610bc257600080fd5b50565b600081359050610bd481610bae565b92915050565b60008060408385031215610bf157610bf0610a2f565b5b6000610bff85828601610b10565b9250506020610c1085828601610bc5565b9150509250929050565b600081519050919050565b600082825260208201905092915050565b60005b83811015610c54578082015181840152602081019050610c39565b83811115610c63576000848401525b50505050565b6000601f19601f8301169050919050565b6000610c8582610c1a565b610c8f8185610c25565b9350610c9f818560208601610c36565b610ca881610c69565b840191505092915050565b60006020820190508181036000830152610ccd8184610c7a565b905092915050565b7f416363657373436f6e74726f6c3a2063616e206f6e6c792072656e6f756e636560008201527f20726f6c657320666f722073656c660000000000000000000000000000000000602082015250565b6000610d31602f83610c25565b9150610d3c82610cd5565b604082019050919050565b60006020820190508181036000830152610d6081610d24565b9050919050565b600081905092915050565b7f416363657373436f6e74726f6c3a206163636f756e7420000000000000000000600082015250565b6000610da8601783610d67565b9150610db382610d72565b601782019050919050565b6000610dc982610c1a565b610dd38185610d67565b9350610de3818560208601610c36565b80840191505092915050565b7f206973206d697373696e6720726f6c6520000000000000000000000000000000600082015250565b6000610e25601183610d67565b9150610e3082610def565b601182019050919050565b6000610e4682610d9b565b9150610e528285610dbe565b9150610e5d82610e18565b9150610e698284610dbe565b91508190509392505050565b6000819050919050565b7f4e487b7100000000000000000000000000000000000000000000000000000000600052601160045260246000fd5b6000610eb982610e75565b9150610ec483610e75565b9250817fffffffffffffffffffffffffffffffffffffffffffffffffffffffffffffffff0483118215151615610efd57610efc610e7f565b5b828202905092915050565b6000610f1382610e75565b9150610f1e83610e75565b9250827fffffffffffffffffffffffffffffffffffffffffffffffffffffffffffffffff03821115610f5357610f52610e7f565b5b828201905092915050565b7f4e487b7100000000000000000000000000000000000000000000000000000000600052604160045260246000fd5b7f4e487b7100000000000000000000000000000000000000000000000000000000600052603260045260246000fd5b6000610fc782610e75565b91506000821415610fdb57610fda610e7f565b5b600182039050919050565b7f537472696e67733a20686578206c656e67746820696e73756666696369656e74600082015250565b600061101c602083610c25565b915061102782610fe6565b602082019050919050565b6000602082019050818103600083015261104b8161100f565b905091905056fea2646970667358221220f1a4978fc6d11c22c2d8c323e712b1fccba9f79312964efdb5127d350603715a64736f6c63430008090033",
  "linkReferences": {},
  "deployedLinkReferences": {}
}