{
  "_format": "hh-sol-artifact-1",
  "contractName": "Manager",
  "sourceName": "contracts/Manager.sol",
  "abi": [
    {
      "inputs": [],
      "stateMutability": "nonpayable",
      "type": "constructor"
    },
    {
      "anonymous": false,
      "inputs": [
        {
          "indexed": false,
          "internalType": "uint256",
          "name": "_projectTemplateIndex",
          "type": "uint256"
        },
        {
          "indexed": false,
          "internalType": "uint256",
          "name": "_projectIndex",
          "type": "uint256"
        }
      ],
      "name": "ProjectMinted",
      "type": "event"
    },
    {
      "anonymous": false,
      "inputs": [
        {
          "indexed": false,
          "internalType": "address",
          "name": "_address",
          "type": "address"
        },
        {
          "indexed": false,
          "internalType": "uint256",
          "name": "_index",
          "type": "uint256"
        }
      ],
      "name": "ProjectTemplateAdded",
      "type": "event"
    },
    {
      "anonymous": false,
      "inputs": [
        {
          "indexed": true,
          "internalType": "bytes32",
          "name": "role",
          "type": "bytes32"
        },
        {
          "indexed": true,
          "internalType": "bytes32",
          "name": "previousAdminRole",
          "type": "bytes32"
        },
        {
          "indexed": true,
          "internalType": "bytes32",
          "name": "newAdminRole",
          "type": "bytes32"
        }
      ],
      "name": "RoleAdminChanged",
      "type": "event"
    },
    {
      "anonymous": false,
      "inputs": [
        {
          "indexed": true,
          "internalType": "bytes32",
          "name": "role",
          "type": "bytes32"
        },
        {
          "indexed": true,
          "internalType": "address",
          "name": "account",
          "type": "address"
        },
        {
          "indexed": true,
          "internalType": "address",
          "name": "sender",
          "type": "address"
        }
      ],
      "name": "RoleGranted",
      "type": "event"
    },
    {
      "anonymous": false,
      "inputs": [
        {
          "indexed": true,
          "internalType": "bytes32",
          "name": "role",
          "type": "bytes32"
        },
        {
          "indexed": true,
          "internalType": "address",
          "name": "account",
          "type": "address"
        },
        {
          "indexed": true,
          "internalType": "address",
          "name": "sender",
          "type": "address"
        }
      ],
      "name": "RoleRevoked",
      "type": "event"
    },
    {
      "inputs": [],
      "name": "DEFAULT_ADMIN_ROLE",
      "outputs": [
        {
          "internalType": "bytes32",
          "name": "",
          "type": "bytes32"
        }
      ],
      "stateMutability": "view",
      "type": "function"
    },
    {
      "inputs": [],
      "name": "PARTNER_ROLE",
      "outputs": [
        {
          "internalType": "bytes32",
          "name": "",
          "type": "bytes32"
        }
      ],
      "stateMutability": "view",
      "type": "function"
    },
    {
      "inputs": [],
      "name": "UNKOWN_ROLE",
      "outputs": [
        {
          "internalType": "bytes32",
          "name": "",
          "type": "bytes32"
        }
      ],
      "stateMutability": "view",
      "type": "function"
    },
    {
      "inputs": [
        {
          "internalType": "address",
          "name": "_address",
          "type": "address"
        }
      ],
      "name": "addProjectTemplate",
      "outputs": [
        {
          "internalType": "uint256",
          "name": "_index",
          "type": "uint256"
        }
      ],
      "stateMutability": "nonpayable",
      "type": "function"
    },
    {
      "inputs": [
        {
          "internalType": "uint256",
          "name": "_templateIndex",
          "type": "uint256"
        }
      ],
      "name": "createProject",
      "outputs": [
        {
          "internalType": "uint256",
          "name": "_index",
          "type": "uint256"
        }
      ],
      "stateMutability": "nonpayable",
      "type": "function"
    },
    {
      "inputs": [],
      "name": "getRole",
      "outputs": [
        {
          "internalType": "bytes32",
          "name": "",
          "type": "bytes32"
        }
      ],
      "stateMutability": "view",
      "type": "function"
    },
    {
      "inputs": [
        {
          "internalType": "bytes32",
          "name": "role",
          "type": "bytes32"
        }
      ],
      "name": "getRoleAdmin",
      "outputs": [
        {
          "internalType": "bytes32",
          "name": "",
          "type": "bytes32"
        }
      ],
      "stateMutability": "view",
      "type": "function"
    },
    {
      "inputs": [
        {
          "internalType": "bytes32",
          "name": "role",
          "type": "bytes32"
        },
        {
          "internalType": "address",
          "name": "account",
          "type": "address"
        }
      ],
      "name": "grantRole",
      "outputs": [],
      "stateMutability": "nonpayable",
      "type": "function"
    },
    {
      "inputs": [
        {
          "internalType": "bytes32",
          "name": "role",
          "type": "bytes32"
        },
        {
          "internalType": "address",
          "name": "account",
          "type": "address"
        }
      ],
      "name": "hasRole",
      "outputs": [
        {
          "internalType": "bool",
          "name": "",
          "type": "bool"
        }
      ],
      "stateMutability": "view",
      "type": "function"
    },
    {
      "inputs": [
        {
          "internalType": "address",
          "name": "operator",
          "type": "address"
        },
        {
          "internalType": "address",
          "name": "from",
          "type": "address"
        },
        {
          "internalType": "uint256",
          "name": "tokenId",
          "type": "uint256"
        },
        {
          "internalType": "bytes",
          "name": "data",
          "type": "bytes"
        }
      ],
      "name": "onERC721Received",
      "outputs": [
        {
          "internalType": "bytes4",
          "name": "",
          "type": "bytes4"
        }
      ],
      "stateMutability": "nonpayable",
      "type": "function"
    },
    {
      "inputs": [
        {
          "internalType": "bytes32",
          "name": "role",
          "type": "bytes32"
        },
        {
          "internalType": "address",
          "name": "account",
          "type": "address"
        }
      ],
      "name": "renounceRole",
      "outputs": [],
      "stateMutability": "nonpayable",
      "type": "function"
    },
    {
      "inputs": [
        {
          "internalType": "bytes32",
          "name": "role",
          "type": "bytes32"
        },
        {
          "internalType": "address",
          "name": "account",
          "type": "address"
        }
      ],
      "name": "revokeRole",
      "outputs": [],
      "stateMutability": "nonpayable",
      "type": "function"
    },
    {
      "inputs": [
        {
          "internalType": "bytes4",
          "name": "interfaceId",
          "type": "bytes4"
        }
      ],
      "name": "supportsInterface",
      "outputs": [
        {
          "internalType": "bool",
          "name": "",
          "type": "bool"
        }
      ],
      "stateMutability": "view",
      "type": "function"
    }
  ],
  "bytecode": "0x6080604052600060025534801561001557600080fd5b506100296000801b3361002e60201b60201c565b61018c565b61003e828261011a60201b60201c565b61011657600160008084815260200190815260200160002060000160008373ffffffffffffffffffffffffffffffffffffffff1673ffffffffffffffffffffffffffffffffffffffff16815260200190815260200160002060006101000a81548160ff0219169083151502179055506100bb61018460201b60201c565b73ffffffffffffffffffffffffffffffffffffffff168173ffffffffffffffffffffffffffffffffffffffff16837f2f8788117e7eff1d82e926ec794901d17c78024a50270940304540a733656f0d60405160405180910390a45b5050565b600080600084815260200190815260200160002060000160008373ffffffffffffffffffffffffffffffffffffffff1673ffffffffffffffffffffffffffffffffffffffff16815260200190815260200160002060009054906101000a900460ff16905092915050565b600033905090565b61161e8061019b6000396000f3fe608060405234801561001057600080fd5b50600436106100cf5760003560e01c806391d148541161008c578063b622e81611610066578063b622e81614610238578063d2b76dac14610256578063d547741f14610286578063fde08174146102a2576100cf565b806391d14854146101ba578063992034d7146101ea578063a217fddf1461021a576100cf565b806301ffc9a7146100d4578063150b7a0214610104578063248a9ca3146101345780632513e2b9146101645780632f2ff15d1461018257806336568abe1461019e575b600080fd5b6100ee60048036038101906100e99190610d07565b6102c0565b6040516100fb9190610d4f565b60405180910390f35b61011e60048036038101906101199190610e63565b61033a565b60405161012b9190610efa565b60405180910390f35b61014e60048036038101906101499190610f4b565b61034f565b60405161015b9190610f87565b60405180910390f35b61016c61036e565b6040516101799190610f87565b60405180910390f35b61019c60048036038101906101979190610fa2565b610392565b005b6101b860048036038101906101b39190610fa2565b6103b3565b005b6101d460048036038101906101cf9190610fa2565b610436565b6040516101e19190610d4f565b60405180910390f35b61020460048036038101906101ff9190610fe2565b6104a0565b604051610211919061101e565b60405180910390f35b6102226105ed565b60405161022f9190610f87565b60405180910390f35b6102406105f4565b60405161024d9190610f87565b60405180910390f35b610270600480360381019061026b9190611039565b610618565b60405161027d919061101e565b60405180910390f35b6102a0600480360381019061029b9190610fa2565b6106aa565b005b6102aa6106cb565b6040516102b79190610f87565b60405180910390f35b60007f7965db0b000000000000000000000000000000000000000000000000000000007bffffffffffffffffffffffffffffffffffffffffffffffffffffffff1916827bffffffffffffffffffffffffffffffffffffffffffffffffffffffff19161480610333575061033282610785565b5b9050919050565b600063150b7a0260e01b905095945050505050565b6000806000838152602001908152602001600020600101549050919050565b7f2f049b28665abd79bc83d9aa564dba6b787ac439dba27b48e163a83befa9b26081565b61039b8261034f565b6103a4816107ef565b6103ae8383610803565b505050565b6103bb6108e3565b73ffffffffffffffffffffffffffffffffffffffff168173ffffffffffffffffffffffffffffffffffffffff1614610428576040517f08c379a000000000000000000000000000000000000000000000000000000000815260040161041f906110e9565b60405180910390fd5b61043282826108eb565b5050565b600080600084815260200190815260200160002060000160008373ffffffffffffffffffffffffffffffffffffffff1673ffffffffffffffffffffffffffffffffffffffff16815260200190815260200160002060009054906101000a900460ff16905092915050565b60008060001b6104af816107ef565b60025483106104f3576040517f08c379a00000000000000000000000000000000000000000000000000000000081526004016104ea90611155565b60405180910390fd5b60006001600085815260200190815260200160002060009054906101000a900473ffffffffffffffffffffffffffffffffffffffff1690508073ffffffffffffffffffffffffffffffffffffffff16636871ee406040518163ffffffff1660e01b8152600401602060405180830381600087803b15801561057357600080fd5b505af1158015610587573d6000803e3d6000fd5b505050506040513d601f19601f820116820180604052508101906105ab919061118a565b92507f3908dc2a4dfeb2b8f8221a8304c629a2387eb961cd1259420342e99e4cb1ca0484846040516105de9291906111b7565b60405180910390a15050919050565b6000801b81565b7f8b302b7db5491169fb8f5108ca5aab760ddf7e6ca782cee016efae5179064ff581565b60008060001b610627816107ef565b8260016000600254815260200190815260200160002060006101000a81548173ffffffffffffffffffffffffffffffffffffffff021916908373ffffffffffffffffffffffffffffffffffffffff1602179055506002600081548092919061068e9061120f565b919050555060016002546106a29190611258565b915050919050565b6106b38261034f565b6106bc816107ef565b6106c683836108eb565b505050565b60006106da6000801b33610436565b15610707577f44454641554c545f41444d494e5f524f4c4500000000000000000000000000009050610782565b6107317f2f049b28665abd79bc83d9aa564dba6b787ac439dba27b48e163a83befa9b26033610436565b1561075e577f504152544e45525f524f4c4500000000000000000000000000000000000000009050610782565b7f554e4b4f574e5f524f4c4500000000000000000000000000000000000000000090505b90565b60007f01ffc9a7000000000000000000000000000000000000000000000000000000007bffffffffffffffffffffffffffffffffffffffffffffffffffffffff1916827bffffffffffffffffffffffffffffffffffffffffffffffffffffffff1916149050919050565b610800816107fb6108e3565b6109cc565b50565b61080d8282610436565b6108df57600160008084815260200190815260200160002060000160008373ffffffffffffffffffffffffffffffffffffffff1673ffffffffffffffffffffffffffffffffffffffff16815260200190815260200160002060006101000a81548160ff0219169083151502179055506108846108e3565b73ffffffffffffffffffffffffffffffffffffffff168173ffffffffffffffffffffffffffffffffffffffff16837f2f8788117e7eff1d82e926ec794901d17c78024a50270940304540a733656f0d60405160405180910390a45b5050565b600033905090565b6108f58282610436565b156109c857600080600084815260200190815260200160002060000160008373ffffffffffffffffffffffffffffffffffffffff1673ffffffffffffffffffffffffffffffffffffffff16815260200190815260200160002060006101000a81548160ff02191690831515021790555061096d6108e3565b73ffffffffffffffffffffffffffffffffffffffff168173ffffffffffffffffffffffffffffffffffffffff16837ff6391f5c32d9c69d2a47ea670b442974b53935d1edc7fd64eb21e047a839171b60405160405180910390a45b5050565b6109d68282610436565b610a65576109fb8173ffffffffffffffffffffffffffffffffffffffff166014610a69565b610a098360001c6020610a69565b604051602001610a1a92919061139e565b6040516020818303038152906040526040517f08c379a0000000000000000000000000000000000000000000000000000000008152600401610a5c9190611422565b60405180910390fd5b5050565b606060006002836002610a7c9190611444565b610a86919061149e565b67ffffffffffffffff811115610a9f57610a9e6114f4565b5b6040519080825280601f01601f191660200182016040528015610ad15781602001600182028036833780820191505090505b5090507f300000000000000000000000000000000000000000000000000000000000000081600081518110610b0957610b08611523565b5b60200101907effffffffffffffffffffffffffffffffffffffffffffffffffffffffffffff1916908160001a9053507f780000000000000000000000000000000000000000000000000000000000000081600181518110610b6d57610b6c611523565b5b60200101907effffffffffffffffffffffffffffffffffffffffffffffffffffffffffffff1916908160001a90535060006001846002610bad9190611444565b610bb7919061149e565b90505b6001811115610c57577f3031323334353637383961626364656600000000000000000000000000000000600f861660108110610bf957610bf8611523565b5b1a60f81b828281518110610c1057610c0f611523565b5b60200101907effffffffffffffffffffffffffffffffffffffffffffffffffffffffffffff1916908160001a905350600485901c945080610c5090611552565b9050610bba565b5060008414610c9b576040517f08c379a0000000000000000000000000000000000000000000000000000000008152600401610c92906115c8565b60405180910390fd5b8091505092915050565b600080fd5b600080fd5b60007fffffffff0000000000000000000000000000000000000000000000000000000082169050919050565b610ce481610caf565b8114610cef57600080fd5b50565b600081359050610d0181610cdb565b92915050565b600060208284031215610d1d57610d1c610ca5565b5b6000610d2b84828501610cf2565b91505092915050565b60008115159050919050565b610d4981610d34565b82525050565b6000602082019050610d646000830184610d40565b92915050565b600073ffffffffffffffffffffffffffffffffffffffff82169050919050565b6000610d9582610d6a565b9050919050565b610da581610d8a565b8114610db057600080fd5b50565b600081359050610dc281610d9c565b92915050565b6000819050919050565b610ddb81610dc8565b8114610de657600080fd5b50565b600081359050610df881610dd2565b92915050565b600080fd5b600080fd5b600080fd5b60008083601f840112610e2357610e22610dfe565b5b8235905067ffffffffffffffff811115610e4057610e3f610e03565b5b602083019150836001820283011115610e5c57610e5b610e08565b5b9250929050565b600080600080600060808688031215610e7f57610e7e610ca5565b5b6000610e8d88828901610db3565b9550506020610e9e88828901610db3565b9450506040610eaf88828901610de9565b935050606086013567ffffffffffffffff811115610ed057610ecf610caa565b5b610edc88828901610e0d565b92509250509295509295909350565b610ef481610caf565b82525050565b6000602082019050610f0f6000830184610eeb565b92915050565b6000819050919050565b610f2881610f15565b8114610f3357600080fd5b50565b600081359050610f4581610f1f565b92915050565b600060208284031215610f6157610f60610ca5565b5b6000610f6f84828501610f36565b91505092915050565b610f8181610f15565b82525050565b6000602082019050610f9c6000830184610f78565b92915050565b60008060408385031215610fb957610fb8610ca5565b5b6000610fc785828601610f36565b9250506020610fd885828601610db3565b9150509250929050565b600060208284031215610ff857610ff7610ca5565b5b600061100684828501610de9565b91505092915050565b61101881610dc8565b82525050565b6000602082019050611033600083018461100f565b92915050565b60006020828403121561104f5761104e610ca5565b5b600061105d84828501610db3565b91505092915050565b600082825260208201905092915050565b7f416363657373436f6e74726f6c3a2063616e206f6e6c792072656e6f756e636560008201527f20726f6c657320666f722073656c660000000000000000000000000000000000602082015250565b60006110d3602f83611066565b91506110de82611077565b604082019050919050565b60006020820190508181036000830152611102816110c6565b9050919050565b7f496e76616c69642070726f6a6563742074656d706c61746520696e6465780000600082015250565b600061113f601e83611066565b915061114a82611109565b602082019050919050565b6000602082019050818103600083015261116e81611132565b9050919050565b60008151905061118481610dd2565b92915050565b6000602082840312156111a05761119f610ca5565b5b60006111ae84828501611175565b91505092915050565b60006040820190506111cc600083018561100f565b6111d9602083018461100f565b9392505050565b7f4e487b7100000000000000000000000000000000000000000000000000000000600052601160045260246000fd5b600061121a82610dc8565b91507fffffffffffffffffffffffffffffffffffffffffffffffffffffffffffffffff82141561124d5761124c6111e0565b5b600182019050919050565b600061126382610dc8565b915061126e83610dc8565b925082821015611281576112806111e0565b5b828203905092915050565b600081905092915050565b7f416363657373436f6e74726f6c3a206163636f756e7420000000000000000000600082015250565b60006112cd60178361128c565b91506112d882611297565b601782019050919050565b600081519050919050565b60005b8381101561130c5780820151818401526020810190506112f1565b8381111561131b576000848401525b50505050565b600061132c826112e3565b611336818561128c565b93506113468185602086016112ee565b80840191505092915050565b7f206973206d697373696e6720726f6c6520000000000000000000000000000000600082015250565b600061138860118361128c565b915061139382611352565b601182019050919050565b60006113a9826112c0565b91506113b58285611321565b91506113c08261137b565b91506113cc8284611321565b91508190509392505050565b6000601f19601f8301169050919050565b60006113f4826112e3565b6113fe8185611066565b935061140e8185602086016112ee565b611417816113d8565b840191505092915050565b6000602082019050818103600083015261143c81846113e9565b905092915050565b600061144f82610dc8565b915061145a83610dc8565b9250817fffffffffffffffffffffffffffffffffffffffffffffffffffffffffffffffff0483118215151615611493576114926111e0565b5b828202905092915050565b60006114a982610dc8565b91506114b483610dc8565b9250827fffffffffffffffffffffffffffffffffffffffffffffffffffffffffffffffff038211156114e9576114e86111e0565b5b828201905092915050565b7f4e487b7100000000000000000000000000000000000000000000000000000000600052604160045260246000fd5b7f4e487b7100000000000000000000000000000000000000000000000000000000600052603260045260246000fd5b600061155d82610dc8565b91506000821415611571576115706111e0565b5b600182039050919050565b7f537472696e67733a20686578206c656e67746820696e73756666696369656e74600082015250565b60006115b2602083611066565b91506115bd8261157c565b602082019050919050565b600060208201905081810360008301526115e1816115a5565b905091905056fea264697066735822122073fad4fe89010ee361825e70e8f2a7661e00c30b1ca492ce5607449d95128e1864736f6c63430008090033",
  "linkReferences": {},
  "deployedLinkReferences": {}
}