{
  "_format": "hh-sol-artifact-1",
  "contractName": "Manager",
  "sourceName": "contracts/Manager.sol",
  "abi": [
    {
      "inputs": [],
      "stateMutability": "nonpayable",
      "type": "constructor"
    },
    {
      "anonymous": false,
      "inputs": [
        {
          "indexed": false,
          "internalType": "uint256",
          "name": "_projectTemplateIndex",
          "type": "uint256"
        },
        {
          "indexed": false,
          "internalType": "uint256",
          "name": "_projectIndex",
          "type": "uint256"
        }
      ],
      "name": "ProjectMinted",
      "type": "event"
    },
    {
      "anonymous": false,
      "inputs": [
        {
          "indexed": false,
          "internalType": "address",
          "name": "_address",
          "type": "address"
        },
        {
          "indexed": false,
          "internalType": "uint256",
          "name": "_index",
          "type": "uint256"
        }
      ],
      "name": "ProjectTemplateAdded",
      "type": "event"
    },
    {
      "anonymous": false,
      "inputs": [
        {
          "indexed": true,
          "internalType": "bytes32",
          "name": "role",
          "type": "bytes32"
        },
        {
          "indexed": true,
          "internalType": "bytes32",
          "name": "previousAdminRole",
          "type": "bytes32"
        },
        {
          "indexed": true,
          "internalType": "bytes32",
          "name": "newAdminRole",
          "type": "bytes32"
        }
      ],
      "name": "RoleAdminChanged",
      "type": "event"
    },
    {
      "anonymous": false,
      "inputs": [
        {
          "indexed": true,
          "internalType": "bytes32",
          "name": "role",
          "type": "bytes32"
        },
        {
          "indexed": true,
          "internalType": "address",
          "name": "account",
          "type": "address"
        },
        {
          "indexed": true,
          "internalType": "address",
          "name": "sender",
          "type": "address"
        }
      ],
      "name": "RoleGranted",
      "type": "event"
    },
    {
      "anonymous": false,
      "inputs": [
        {
          "indexed": true,
          "internalType": "bytes32",
          "name": "role",
          "type": "bytes32"
        },
        {
          "indexed": true,
          "internalType": "address",
          "name": "account",
          "type": "address"
        },
        {
          "indexed": true,
          "internalType": "address",
          "name": "sender",
          "type": "address"
        }
      ],
      "name": "RoleRevoked",
      "type": "event"
    },
    {
      "inputs": [],
      "name": "DEFAULT_ADMIN_ROLE",
      "outputs": [
        {
          "internalType": "bytes32",
          "name": "",
          "type": "bytes32"
        }
      ],
      "stateMutability": "view",
      "type": "function"
    },
    {
      "inputs": [],
      "name": "PARTNER_ROLE",
      "outputs": [
        {
          "internalType": "bytes32",
          "name": "",
          "type": "bytes32"
        }
      ],
      "stateMutability": "view",
      "type": "function"
    },
    {
      "inputs": [],
      "name": "UNKOWN_ROLE",
      "outputs": [
        {
          "internalType": "bytes32",
          "name": "",
          "type": "bytes32"
        }
      ],
      "stateMutability": "view",
      "type": "function"
    },
    {
      "inputs": [
        {
          "internalType": "address",
          "name": "_address",
          "type": "address"
        }
      ],
      "name": "addProjectTemplate",
      "outputs": [
        {
          "internalType": "uint256",
          "name": "_index",
          "type": "uint256"
        }
      ],
      "stateMutability": "nonpayable",
      "type": "function"
    },
    {
      "inputs": [
        {
          "internalType": "uint256",
          "name": "_templateIndex",
          "type": "uint256"
        }
      ],
      "name": "createProject",
      "outputs": [
        {
          "internalType": "uint256",
          "name": "_index",
          "type": "uint256"
        }
      ],
      "stateMutability": "nonpayable",
      "type": "function"
    },
    {
      "inputs": [],
      "name": "getRole",
      "outputs": [
        {
          "internalType": "bytes32",
          "name": "",
          "type": "bytes32"
        }
      ],
      "stateMutability": "view",
      "type": "function"
    },
    {
      "inputs": [
        {
          "internalType": "bytes32",
          "name": "role",
          "type": "bytes32"
        }
      ],
      "name": "getRoleAdmin",
      "outputs": [
        {
          "internalType": "bytes32",
          "name": "",
          "type": "bytes32"
        }
      ],
      "stateMutability": "view",
      "type": "function"
    },
    {
      "inputs": [
        {
          "internalType": "bytes32",
          "name": "role",
          "type": "bytes32"
        },
        {
          "internalType": "address",
          "name": "account",
          "type": "address"
        }
      ],
      "name": "grantRole",
      "outputs": [],
      "stateMutability": "nonpayable",
      "type": "function"
    },
    {
      "inputs": [
        {
          "internalType": "bytes32",
          "name": "role",
          "type": "bytes32"
        },
        {
          "internalType": "address",
          "name": "account",
          "type": "address"
        }
      ],
      "name": "hasRole",
      "outputs": [
        {
          "internalType": "bool",
          "name": "",
          "type": "bool"
        }
      ],
      "stateMutability": "view",
      "type": "function"
    },
    {
      "inputs": [],
      "name": "listProjectTemplates",
      "outputs": [
        {
          "internalType": "address[]",
          "name": "",
          "type": "address[]"
        }
      ],
      "stateMutability": "view",
      "type": "function"
    },
    {
      "inputs": [
        {
          "internalType": "address",
          "name": "operator",
          "type": "address"
        },
        {
          "internalType": "address",
          "name": "from",
          "type": "address"
        },
        {
          "internalType": "uint256",
          "name": "tokenId",
          "type": "uint256"
        },
        {
          "internalType": "bytes",
          "name": "data",
          "type": "bytes"
        }
      ],
      "name": "onERC721Received",
      "outputs": [
        {
          "internalType": "bytes4",
          "name": "",
          "type": "bytes4"
        }
      ],
      "stateMutability": "nonpayable",
      "type": "function"
    },
    {
      "inputs": [
        {
          "internalType": "bytes32",
          "name": "role",
          "type": "bytes32"
        },
        {
          "internalType": "address",
          "name": "account",
          "type": "address"
        }
      ],
      "name": "renounceRole",
      "outputs": [],
      "stateMutability": "nonpayable",
      "type": "function"
    },
    {
      "inputs": [
        {
          "internalType": "bytes32",
          "name": "role",
          "type": "bytes32"
        },
        {
          "internalType": "address",
          "name": "account",
          "type": "address"
        }
      ],
      "name": "revokeRole",
      "outputs": [],
      "stateMutability": "nonpayable",
      "type": "function"
    },
    {
      "inputs": [
        {
          "internalType": "bytes4",
          "name": "interfaceId",
          "type": "bytes4"
        }
      ],
      "name": "supportsInterface",
      "outputs": [
        {
          "internalType": "bool",
          "name": "",
          "type": "bool"
        }
      ],
      "stateMutability": "view",
      "type": "function"
    }
  ],
  "bytecode": "0x6080604052600060025534801561001557600080fd5b506100296000801b3361002e60201b60201c565b61018c565b61003e828261011a60201b60201c565b61011657600160008084815260200190815260200160002060000160008373ffffffffffffffffffffffffffffffffffffffff1673ffffffffffffffffffffffffffffffffffffffff16815260200190815260200160002060006101000a81548160ff0219169083151502179055506100bb61018460201b60201c565b73ffffffffffffffffffffffffffffffffffffffff168173ffffffffffffffffffffffffffffffffffffffff16837f2f8788117e7eff1d82e926ec794901d17c78024a50270940304540a733656f0d60405160405180910390a45b5050565b600080600084815260200190815260200160002060000160008373ffffffffffffffffffffffffffffffffffffffff1673ffffffffffffffffffffffffffffffffffffffff16815260200190815260200160002060009054906101000a900460ff16905092915050565b600033905090565b61183f806200019c6000396000f3fe608060405234801561001057600080fd5b50600436106100ea5760003560e01c806391d148541161008c578063b622e81611610066578063b622e81614610271578063d2b76dac1461028f578063d547741f146102bf578063fde08174146102db576100ea565b806391d14854146101f3578063992034d714610223578063a217fddf14610253576100ea565b80632513e2b9116100c85780632513e2b91461017f5780632f2ff15d1461019d57806336568abe146101b957806368454852146101d5576100ea565b806301ffc9a7146100ef578063150b7a021461011f578063248a9ca31461014f575b600080fd5b61010960048036038101906101049190610e48565b6102f9565b6040516101169190610e90565b60405180910390f35b61013960048036038101906101349190610fa4565b610373565b604051610146919061103b565b60405180910390f35b6101696004803603810190610164919061108c565b610388565b60405161017691906110c8565b60405180910390f35b6101876103a7565b60405161019491906110c8565b60405180910390f35b6101b760048036038101906101b291906110e3565b6103cb565b005b6101d360048036038101906101ce91906110e3565b6103ec565b005b6101dd61046f565b6040516101ea91906111e1565b60405180910390f35b61020d600480360381019061020891906110e3565b610577565b60405161021a9190610e90565b60405180910390f35b61023d60048036038101906102389190611203565b6105e1565b60405161024a919061123f565b60405180910390f35b61025b61072e565b60405161026891906110c8565b60405180910390f35b610279610735565b60405161028691906110c8565b60405180910390f35b6102a960048036038101906102a4919061125a565b610759565b6040516102b6919061123f565b60405180910390f35b6102d960048036038101906102d491906110e3565b6107eb565b005b6102e361080c565b6040516102f091906110c8565b60405180910390f35b60007f7965db0b000000000000000000000000000000000000000000000000000000007bffffffffffffffffffffffffffffffffffffffffffffffffffffffff1916827bffffffffffffffffffffffffffffffffffffffffffffffffffffffff1916148061036c575061036b826108c6565b5b9050919050565b600063150b7a0260e01b905095945050505050565b6000806000838152602001908152602001600020600101549050919050565b7f2f049b28665abd79bc83d9aa564dba6b787ac439dba27b48e163a83befa9b26081565b6103d482610388565b6103dd81610930565b6103e78383610944565b505050565b6103f4610a24565b73ffffffffffffffffffffffffffffffffffffffff168173ffffffffffffffffffffffffffffffffffffffff1614610461576040517f08c379a00000000000000000000000000000000000000000000000000000000081526004016104589061130a565b60405180910390fd5b61046b8282610a2c565b5050565b60606000801b61047e81610930565b600060025467ffffffffffffffff81111561049c5761049b61132a565b5b6040519080825280602002602001820160405280156104ca5781602001602082028036833780820191505090505b50905060005b60025481101561056e576001600082815260200190815260200160002060009054906101000a900473ffffffffffffffffffffffffffffffffffffffff1682828151811061052157610520611359565b5b602002602001019073ffffffffffffffffffffffffffffffffffffffff16908173ffffffffffffffffffffffffffffffffffffffff16815250508080610566906113b7565b9150506104d0565b50809250505090565b600080600084815260200190815260200160002060000160008373ffffffffffffffffffffffffffffffffffffffff1673ffffffffffffffffffffffffffffffffffffffff16815260200190815260200160002060009054906101000a900460ff16905092915050565b60008060001b6105f081610930565b6002548310610634576040517f08c379a000000000000000000000000000000000000000000000000000000000815260040161062b9061144c565b60405180910390fd5b60006001600085815260200190815260200160002060009054906101000a900473ffffffffffffffffffffffffffffffffffffffff1690508073ffffffffffffffffffffffffffffffffffffffff16636871ee406040518163ffffffff1660e01b8152600401602060405180830381600087803b1580156106b457600080fd5b505af11580156106c8573d6000803e3d6000fd5b505050506040513d601f19601f820116820180604052508101906106ec9190611481565b92507f3908dc2a4dfeb2b8f8221a8304c629a2387eb961cd1259420342e99e4cb1ca04848460405161071f9291906114ae565b60405180910390a15050919050565b6000801b81565b7f8b302b7db5491169fb8f5108ca5aab760ddf7e6ca782cee016efae5179064ff581565b60008060001b61076881610930565b8260016000600254815260200190815260200160002060006101000a81548173ffffffffffffffffffffffffffffffffffffffff021916908373ffffffffffffffffffffffffffffffffffffffff160217905550600260008154809291906107cf906113b7565b919050555060016002546107e391906114d7565b915050919050565b6107f482610388565b6107fd81610930565b6108078383610a2c565b505050565b600061081b6000801b33610577565b15610848577f44454641554c545f41444d494e5f524f4c45000000000000000000000000000090506108c3565b6108727f2f049b28665abd79bc83d9aa564dba6b787ac439dba27b48e163a83befa9b26033610577565b1561089f577f504152544e45525f524f4c45000000000000000000000000000000000000000090506108c3565b7f554e4b4e4f574e5f524f4c45000000000000000000000000000000000000000090505b90565b60007f01ffc9a7000000000000000000000000000000000000000000000000000000007bffffffffffffffffffffffffffffffffffffffffffffffffffffffff1916827bffffffffffffffffffffffffffffffffffffffffffffffffffffffff1916149050919050565b6109418161093c610a24565b610b0d565b50565b61094e8282610577565b610a2057600160008084815260200190815260200160002060000160008373ffffffffffffffffffffffffffffffffffffffff1673ffffffffffffffffffffffffffffffffffffffff16815260200190815260200160002060006101000a81548160ff0219169083151502179055506109c5610a24565b73ffffffffffffffffffffffffffffffffffffffff168173ffffffffffffffffffffffffffffffffffffffff16837f2f8788117e7eff1d82e926ec794901d17c78024a50270940304540a733656f0d60405160405180910390a45b5050565b600033905090565b610a368282610577565b15610b0957600080600084815260200190815260200160002060000160008373ffffffffffffffffffffffffffffffffffffffff1673ffffffffffffffffffffffffffffffffffffffff16815260200190815260200160002060006101000a81548160ff021916908315150217905550610aae610a24565b73ffffffffffffffffffffffffffffffffffffffff168173ffffffffffffffffffffffffffffffffffffffff16837ff6391f5c32d9c69d2a47ea670b442974b53935d1edc7fd64eb21e047a839171b60405160405180910390a45b5050565b610b178282610577565b610ba657610b3c8173ffffffffffffffffffffffffffffffffffffffff166014610baa565b610b4a8360001c6020610baa565b604051602001610b5b92919061161d565b6040516020818303038152906040526040517f08c379a0000000000000000000000000000000000000000000000000000000008152600401610b9d91906116a1565b60405180910390fd5b5050565b606060006002836002610bbd91906116c3565b610bc7919061171d565b67ffffffffffffffff811115610be057610bdf61132a565b5b6040519080825280601f01601f191660200182016040528015610c125781602001600182028036833780820191505090505b5090507f300000000000000000000000000000000000000000000000000000000000000081600081518110610c4a57610c49611359565b5b60200101907effffffffffffffffffffffffffffffffffffffffffffffffffffffffffffff1916908160001a9053507f780000000000000000000000000000000000000000000000000000000000000081600181518110610cae57610cad611359565b5b60200101907effffffffffffffffffffffffffffffffffffffffffffffffffffffffffffff1916908160001a90535060006001846002610cee91906116c3565b610cf8919061171d565b90505b6001811115610d98577f3031323334353637383961626364656600000000000000000000000000000000600f861660108110610d3a57610d39611359565b5b1a60f81b828281518110610d5157610d50611359565b5b60200101907effffffffffffffffffffffffffffffffffffffffffffffffffffffffffffff1916908160001a905350600485901c945080610d9190611773565b9050610cfb565b5060008414610ddc576040517f08c379a0000000000000000000000000000000000000000000000000000000008152600401610dd3906117e9565b60405180910390fd5b8091505092915050565b600080fd5b600080fd5b60007fffffffff0000000000000000000000000000000000000000000000000000000082169050919050565b610e2581610df0565b8114610e3057600080fd5b50565b600081359050610e4281610e1c565b92915050565b600060208284031215610e5e57610e5d610de6565b5b6000610e6c84828501610e33565b91505092915050565b60008115159050919050565b610e8a81610e75565b82525050565b6000602082019050610ea56000830184610e81565b92915050565b600073ffffffffffffffffffffffffffffffffffffffff82169050919050565b6000610ed682610eab565b9050919050565b610ee681610ecb565b8114610ef157600080fd5b50565b600081359050610f0381610edd565b92915050565b6000819050919050565b610f1c81610f09565b8114610f2757600080fd5b50565b600081359050610f3981610f13565b92915050565b600080fd5b600080fd5b600080fd5b60008083601f840112610f6457610f63610f3f565b5b8235905067ffffffffffffffff811115610f8157610f80610f44565b5b602083019150836001820283011115610f9d57610f9c610f49565b5b9250929050565b600080600080600060808688031215610fc057610fbf610de6565b5b6000610fce88828901610ef4565b9550506020610fdf88828901610ef4565b9450506040610ff088828901610f2a565b935050606086013567ffffffffffffffff81111561101157611010610deb565b5b61101d88828901610f4e565b92509250509295509295909350565b61103581610df0565b82525050565b6000602082019050611050600083018461102c565b92915050565b6000819050919050565b61106981611056565b811461107457600080fd5b50565b60008135905061108681611060565b92915050565b6000602082840312156110a2576110a1610de6565b5b60006110b084828501611077565b91505092915050565b6110c281611056565b82525050565b60006020820190506110dd60008301846110b9565b92915050565b600080604083850312156110fa576110f9610de6565b5b600061110885828601611077565b925050602061111985828601610ef4565b9150509250929050565b600081519050919050565b600082825260208201905092915050565b6000819050602082019050919050565b61115881610ecb565b82525050565b600061116a838361114f565b60208301905092915050565b6000602082019050919050565b600061118e82611123565b611198818561112e565b93506111a38361113f565b8060005b838110156111d45781516111bb888261115e565b97506111c683611176565b9250506001810190506111a7565b5085935050505092915050565b600060208201905081810360008301526111fb8184611183565b905092915050565b60006020828403121561121957611218610de6565b5b600061122784828501610f2a565b91505092915050565b61123981610f09565b82525050565b60006020820190506112546000830184611230565b92915050565b6000602082840312156112705761126f610de6565b5b600061127e84828501610ef4565b91505092915050565b600082825260208201905092915050565b7f416363657373436f6e74726f6c3a2063616e206f6e6c792072656e6f756e636560008201527f20726f6c657320666f722073656c660000000000000000000000000000000000602082015250565b60006112f4602f83611287565b91506112ff82611298565b604082019050919050565b60006020820190508181036000830152611323816112e7565b9050919050565b7f4e487b7100000000000000000000000000000000000000000000000000000000600052604160045260246000fd5b7f4e487b7100000000000000000000000000000000000000000000000000000000600052603260045260246000fd5b7f4e487b7100000000000000000000000000000000000000000000000000000000600052601160045260246000fd5b60006113c282610f09565b91507fffffffffffffffffffffffffffffffffffffffffffffffffffffffffffffffff8214156113f5576113f4611388565b5b600182019050919050565b7f496e76616c69642070726f6a6563742074656d706c61746520696e6465780000600082015250565b6000611436601e83611287565b915061144182611400565b602082019050919050565b6000602082019050818103600083015261146581611429565b9050919050565b60008151905061147b81610f13565b92915050565b60006020828403121561149757611496610de6565b5b60006114a58482850161146c565b91505092915050565b60006040820190506114c36000830185611230565b6114d06020830184611230565b9392505050565b60006114e282610f09565b91506114ed83610f09565b925082821015611500576114ff611388565b5b828203905092915050565b600081905092915050565b7f416363657373436f6e74726f6c3a206163636f756e7420000000000000000000600082015250565b600061154c60178361150b565b915061155782611516565b601782019050919050565b600081519050919050565b60005b8381101561158b578082015181840152602081019050611570565b8381111561159a576000848401525b50505050565b60006115ab82611562565b6115b5818561150b565b93506115c581856020860161156d565b80840191505092915050565b7f206973206d697373696e6720726f6c6520000000000000000000000000000000600082015250565b600061160760118361150b565b9150611612826115d1565b601182019050919050565b60006116288261153f565b915061163482856115a0565b915061163f826115fa565b915061164b82846115a0565b91508190509392505050565b6000601f19601f8301169050919050565b600061167382611562565b61167d8185611287565b935061168d81856020860161156d565b61169681611657565b840191505092915050565b600060208201905081810360008301526116bb8184611668565b905092915050565b60006116ce82610f09565b91506116d983610f09565b9250817fffffffffffffffffffffffffffffffffffffffffffffffffffffffffffffffff048311821515161561171257611711611388565b5b828202905092915050565b600061172882610f09565b915061173383610f09565b9250827fffffffffffffffffffffffffffffffffffffffffffffffffffffffffffffffff0382111561176857611767611388565b5b828201905092915050565b600061177e82610f09565b9150600082141561179257611791611388565b5b600182039050919050565b7f537472696e67733a20686578206c656e67746820696e73756666696369656e74600082015250565b60006117d3602083611287565b91506117de8261179d565b602082019050919050565b60006020820190508181036000830152611802816117c6565b905091905056fea26469706673582212203f020519c89b99260424cd1710b7d7c90464b2d1698900dde9360b3a56490ee664736f6c63430008090033",
  "linkReferences": {},
  "deployedLinkReferences": {}
}