{
  "_format": "hh-sol-artifact-1",
  "contractName": "Marketplace",
  "sourceName": "contracts/Marketplace.sol",
  "abi": [
    {
      "inputs": [
        {
          "internalType": "uint256",
          "name": "_index",
          "type": "uint256"
        }
      ],
      "name": "buyProduct",
      "outputs": [],
      "stateMutability": "payable",
      "type": "function"
    },
    {
      "inputs": [],
      "name": "getProductsLength",
      "outputs": [
        {
          "internalType": "uint256",
          "name": "",
          "type": "uint256"
        }
      ],
      "stateMutability": "view",
      "type": "function"
    },
    {
      "inputs": [
        {
          "internalType": "uint256",
          "name": "_index",
          "type": "uint256"
        }
      ],
      "name": "readProduct",
      "outputs": [
        {
          "internalType": "address payable",
          "name": "",
          "type": "address"
        },
        {
          "internalType": "string",
          "name": "",
          "type": "string"
        },
        {
          "internalType": "string",
          "name": "",
          "type": "string"
        },
        {
          "internalType": "string",
          "name": "",
          "type": "string"
        },
        {
          "internalType": "string",
          "name": "",
          "type": "string"
        },
        {
          "internalType": "uint256",
          "name": "",
          "type": "uint256"
        },
        {
          "internalType": "uint256",
          "name": "",
          "type": "uint256"
        }
      ],
      "stateMutability": "view",
      "type": "function"
    },
    {
      "inputs": [
        {
          "internalType": "string",
          "name": "_name",
          "type": "string"
        },
        {
          "internalType": "string",
          "name": "_image",
          "type": "string"
        },
        {
          "internalType": "string",
          "name": "_description",
          "type": "string"
        },
        {
          "internalType": "string",
          "name": "_location",
          "type": "string"
        },
        {
          "internalType": "uint256",
          "name": "_price",
          "type": "uint256"
        }
      ],
      "name": "writeProduct",
      "outputs": [],
      "stateMutability": "nonpayable",
      "type": "function"
    }
  ],
  "bytecode": "0x60806040526000805573874069fa1eb16d44d622f2e0ca25eea172369bc1600160006101000a81548173ffffffffffffffffffffffffffffffffffffffff021916908373ffffffffffffffffffffffffffffffffffffffff16021790555034801561006957600080fd5b50610e2c806100796000396000f3fe60806040526004361061003f5760003560e01c80631155dfe5146100445780638642269e1461006f5780638da8f27b1461008b578063fffa7e2e146100b4575b600080fd5b34801561005057600080fd5b506100596100f7565b6040516100669190610788565b60405180910390f35b610089600480360381019061008491906107e3565b610100565b005b34801561009757600080fd5b506100b260048036038101906100ad9190610956565b61026b565b005b3480156100c057600080fd5b506100db60048036038101906100d691906107e3565b6103bb565b6040516100ee9796959493929190610b0a565b60405180910390f35b60008054905090565b600160009054906101000a900473ffffffffffffffffffffffffffffffffffffffff1673ffffffffffffffffffffffffffffffffffffffff166323b872dd336002600085815260200190815260200160002060000160009054906101000a900473ffffffffffffffffffffffffffffffffffffffff1660026000868152602001908152602001600020600501546040518463ffffffff1660e01b81526004016101ab93929190610c15565b602060405180830381600087803b1580156101c557600080fd5b505af11580156101d9573d6000803e3d6000fd5b505050506040513d601f19601f820116820180604052508101906101fd9190610c84565b61023c576040517f08c379a000000000000000000000000000000000000000000000000000000000815260040161023390610cfd565b60405180910390fd5b60026000828152602001908152602001600020600601600081548092919061026390610d4c565b919050555050565b60006040518060e001604052803373ffffffffffffffffffffffffffffffffffffffff16815260200187815260200186815260200185815260200184815260200183815260200182815250600260008054815260200190815260200160002060008201518160000160006101000a81548173ffffffffffffffffffffffffffffffffffffffff021916908373ffffffffffffffffffffffffffffffffffffffff160217905550602082015181600101908051906020019061032d9291906106cc565b50604082015181600201908051906020019061034a9291906106cc565b5060608201518160030190805190602001906103679291906106cc565b5060808201518160040190805190602001906103849291906106cc565b5060a0820151816005015560c082015181600601559050506000808154809291906103ae90610d4c565b9190505550505050505050565b60006060806060806000806002600089815260200190815260200160002060000160009054906101000a900473ffffffffffffffffffffffffffffffffffffffff16600260008a8152602001908152602001600020600101600260008b8152602001908152602001600020600201600260008c8152602001908152602001600020600301600260008d8152602001908152602001600020600401600260008e815260200190815260200160002060050154600260008f81526020019081526020016000206006015485805461048f90610dc4565b80601f01602080910402602001604051908101604052809291908181526020018280546104bb90610dc4565b80156105085780601f106104dd57610100808354040283529160200191610508565b820191906000526020600020905b8154815290600101906020018083116104eb57829003601f168201915b5050505050955084805461051b90610dc4565b80601f016020809104026020016040519081016040528092919081815260200182805461054790610dc4565b80156105945780601f1061056957610100808354040283529160200191610594565b820191906000526020600020905b81548152906001019060200180831161057757829003601f168201915b505050505094508380546105a790610dc4565b80601f01602080910402602001604051908101604052809291908181526020018280546105d390610dc4565b80156106205780601f106105f557610100808354040283529160200191610620565b820191906000526020600020905b81548152906001019060200180831161060357829003601f168201915b5050505050935082805461063390610dc4565b80601f016020809104026020016040519081016040528092919081815260200182805461065f90610dc4565b80156106ac5780601f10610681576101008083540402835291602001916106ac565b820191906000526020600020905b81548152906001019060200180831161068f57829003601f168201915b505050505092509650965096509650965096509650919395979092949650565b8280546106d890610dc4565b90600052602060002090601f0160209004810192826106fa5760008555610741565b82601f1061071357805160ff1916838001178555610741565b82800160010185558215610741579182015b82811115610740578251825591602001919060010190610725565b5b50905061074e9190610752565b5090565b5b8082111561076b576000816000905550600101610753565b5090565b6000819050919050565b6107828161076f565b82525050565b600060208201905061079d6000830184610779565b92915050565b6000604051905090565b600080fd5b600080fd5b6107c08161076f565b81146107cb57600080fd5b50565b6000813590506107dd816107b7565b92915050565b6000602082840312156107f9576107f86107ad565b5b6000610807848285016107ce565b91505092915050565b600080fd5b600080fd5b6000601f19601f8301169050919050565b7f4e487b7100000000000000000000000000000000000000000000000000000000600052604160045260246000fd5b6108638261081a565b810181811067ffffffffffffffff821117156108825761088161082b565b5b80604052505050565b60006108956107a3565b90506108a1828261085a565b919050565b600067ffffffffffffffff8211156108c1576108c061082b565b5b6108ca8261081a565b9050602081019050919050565b82818337600083830152505050565b60006108f96108f4846108a6565b61088b565b90508281526020810184848401111561091557610914610815565b5b6109208482856108d7565b509392505050565b600082601f83011261093d5761093c610810565b5b813561094d8482602086016108e6565b91505092915050565b600080600080600060a08688031215610972576109716107ad565b5b600086013567ffffffffffffffff8111156109905761098f6107b2565b5b61099c88828901610928565b955050602086013567ffffffffffffffff8111156109bd576109bc6107b2565b5b6109c988828901610928565b945050604086013567ffffffffffffffff8111156109ea576109e96107b2565b5b6109f688828901610928565b935050606086013567ffffffffffffffff811115610a1757610a166107b2565b5b610a2388828901610928565b9250506080610a34888289016107ce565b9150509295509295909350565b600073ffffffffffffffffffffffffffffffffffffffff82169050919050565b6000610a6c82610a41565b9050919050565b610a7c81610a61565b82525050565b600081519050919050565b600082825260208201905092915050565b60005b83811015610abc578082015181840152602081019050610aa1565b83811115610acb576000848401525b50505050565b6000610adc82610a82565b610ae68185610a8d565b9350610af6818560208601610a9e565b610aff8161081a565b840191505092915050565b600060e082019050610b1f600083018a610a73565b8181036020830152610b318189610ad1565b90508181036040830152610b458188610ad1565b90508181036060830152610b598187610ad1565b90508181036080830152610b6d8186610ad1565b9050610b7c60a0830185610779565b610b8960c0830184610779565b98975050505050505050565b6000610ba082610a41565b9050919050565b610bb081610b95565b82525050565b6000819050919050565b6000610bdb610bd6610bd184610a41565b610bb6565b610a41565b9050919050565b6000610bed82610bc0565b9050919050565b6000610bff82610be2565b9050919050565b610c0f81610bf4565b82525050565b6000606082019050610c2a6000830186610ba7565b610c376020830185610c06565b610c446040830184610779565b949350505050565b60008115159050919050565b610c6181610c4c565b8114610c6c57600080fd5b50565b600081519050610c7e81610c58565b92915050565b600060208284031215610c9a57610c996107ad565b5b6000610ca884828501610c6f565b91505092915050565b7f5472616e73666572206661696c65642e00000000000000000000000000000000600082015250565b6000610ce7601083610a8d565b9150610cf282610cb1565b602082019050919050565b60006020820190508181036000830152610d1681610cda565b9050919050565b7f4e487b7100000000000000000000000000000000000000000000000000000000600052601160045260246000fd5b6000610d578261076f565b91507fffffffffffffffffffffffffffffffffffffffffffffffffffffffffffffffff821415610d8a57610d89610d1d565b5b600182019050919050565b7f4e487b7100000000000000000000000000000000000000000000000000000000600052602260045260246000fd5b60006002820490506001821680610ddc57607f821691505b60208210811415610df057610def610d95565b5b5091905056fea2646970667358221220ec5e9e5e2f27ee7996d4e46c377bb21ebd8ef6fa6a38b3c955da590eefc25ab964736f6c63430008090033",
  "linkReferences": {},
  "deployedLinkReferences": {}
}