{
  "_format": "hh-sol-artifact-1",
  "contractName": "MyNFT",
  "sourceName": "contracts/MyNFT.sol",
  "abi": [
    {
      "inputs": [],
      "stateMutability": "nonpayable",
      "type": "constructor"
    },
    {
      "anonymous": false,
      "inputs": [
        {
          "indexed": true,
          "internalType": "address",
          "name": "owner",
          "type": "address"
        },
        {
          "indexed": true,
          "internalType": "address",
          "name": "approved",
          "type": "address"
        },
        {
          "indexed": true,
          "internalType": "uint256",
          "name": "tokenId",
          "type": "uint256"
        }
      ],
      "name": "Approval",
      "type": "event"
    },
    {
      "anonymous": false,
      "inputs": [
        {
          "indexed": true,
          "internalType": "address",
          "name": "owner",
          "type": "address"
        },
        {
          "indexed": true,
          "internalType": "address",
          "name": "operator",
          "type": "address"
        },
        {
          "indexed": false,
          "internalType": "bool",
          "name": "approved",
          "type": "bool"
        }
      ],
      "name": "ApprovalForAll",
      "type": "event"
    },
    {
      "anonymous": false,
      "inputs": [
        {
          "indexed": true,
          "internalType": "address",
          "name": "previousOwner",
          "type": "address"
        },
        {
          "indexed": true,
          "internalType": "address",
          "name": "newOwner",
          "type": "address"
        }
      ],
      "name": "OwnershipTransferred",
      "type": "event"
    },
    {
      "anonymous": false,
      "inputs": [
        {
          "indexed": true,
          "internalType": "address",
          "name": "from",
          "type": "address"
        },
        {
          "indexed": true,
          "internalType": "address",
          "name": "to",
          "type": "address"
        },
        {
          "indexed": true,
          "internalType": "uint256",
          "name": "tokenId",
          "type": "uint256"
        }
      ],
      "name": "Transfer",
      "type": "event"
    },
    {
      "inputs": [
        {
          "internalType": "address",
          "name": "to",
          "type": "address"
        },
        {
          "internalType": "uint256",
          "name": "tokenId",
          "type": "uint256"
        }
      ],
      "name": "approve",
      "outputs": [],
      "stateMutability": "nonpayable",
      "type": "function"
    },
    {
      "inputs": [
        {
          "internalType": "address",
          "name": "owner",
          "type": "address"
        }
      ],
      "name": "balanceOf",
      "outputs": [
        {
          "internalType": "uint256",
          "name": "",
          "type": "uint256"
        }
      ],
      "stateMutability": "view",
      "type": "function"
    },
    {
      "inputs": [
        {
          "internalType": "uint256",
          "name": "tokenId",
          "type": "uint256"
        }
      ],
      "name": "getApproved",
      "outputs": [
        {
          "internalType": "address",
          "name": "",
          "type": "address"
        }
      ],
      "stateMutability": "view",
      "type": "function"
    },
    {
      "inputs": [
        {
          "internalType": "address",
          "name": "owner",
          "type": "address"
        },
        {
          "internalType": "address",
          "name": "operator",
          "type": "address"
        }
      ],
      "name": "isApprovedForAll",
      "outputs": [
        {
          "internalType": "bool",
          "name": "",
          "type": "bool"
        }
      ],
      "stateMutability": "view",
      "type": "function"
    },
    {
      "inputs": [],
      "name": "name",
      "outputs": [
        {
          "internalType": "string",
          "name": "",
          "type": "string"
        }
      ],
      "stateMutability": "view",
      "type": "function"
    },
    {
      "inputs": [],
      "name": "owner",
      "outputs": [
        {
          "internalType": "address",
          "name": "",
          "type": "address"
        }
      ],
      "stateMutability": "view",
      "type": "function"
    },
    {
      "inputs": [
        {
          "internalType": "uint256",
          "name": "tokenId",
          "type": "uint256"
        }
      ],
      "name": "ownerOf",
      "outputs": [
        {
          "internalType": "address",
          "name": "",
          "type": "address"
        }
      ],
      "stateMutability": "view",
      "type": "function"
    },
    {
      "inputs": [],
      "name": "renounceOwnership",
      "outputs": [],
      "stateMutability": "nonpayable",
      "type": "function"
    },
    {
      "inputs": [
        {
          "internalType": "address",
          "name": "to",
          "type": "address"
        },
        {
          "internalType": "string",
          "name": "uri",
          "type": "string"
        }
      ],
      "name": "safeMint",
      "outputs": [],
      "stateMutability": "nonpayable",
      "type": "function"
    },
    {
      "inputs": [
        {
          "internalType": "address",
          "name": "from",
          "type": "address"
        },
        {
          "internalType": "address",
          "name": "to",
          "type": "address"
        },
        {
          "internalType": "uint256",
          "name": "tokenId",
          "type": "uint256"
        }
      ],
      "name": "safeTransferFrom",
      "outputs": [],
      "stateMutability": "nonpayable",
      "type": "function"
    },
    {
      "inputs": [
        {
          "internalType": "address",
          "name": "from",
          "type": "address"
        },
        {
          "internalType": "address",
          "name": "to",
          "type": "address"
        },
        {
          "internalType": "uint256",
          "name": "tokenId",
          "type": "uint256"
        },
        {
          "internalType": "bytes",
          "name": "data",
          "type": "bytes"
        }
      ],
      "name": "safeTransferFrom",
      "outputs": [],
      "stateMutability": "nonpayable",
      "type": "function"
    },
    {
      "inputs": [
        {
          "internalType": "address",
          "name": "operator",
          "type": "address"
        },
        {
          "internalType": "bool",
          "name": "approved",
          "type": "bool"
        }
      ],
      "name": "setApprovalForAll",
      "outputs": [],
      "stateMutability": "nonpayable",
      "type": "function"
    },
    {
      "inputs": [
        {
          "internalType": "bytes4",
          "name": "interfaceId",
          "type": "bytes4"
        }
      ],
      "name": "supportsInterface",
      "outputs": [
        {
          "internalType": "bool",
          "name": "",
          "type": "bool"
        }
      ],
      "stateMutability": "view",
      "type": "function"
    },
    {
      "inputs": [],
      "name": "symbol",
      "outputs": [
        {
          "internalType": "string",
          "name": "",
          "type": "string"
        }
      ],
      "stateMutability": "view",
      "type": "function"
    },
    {
      "inputs": [
        {
          "internalType": "uint256",
          "name": "index",
          "type": "uint256"
        }
      ],
      "name": "tokenByIndex",
      "outputs": [
        {
          "internalType": "uint256",
          "name": "",
          "type": "uint256"
        }
      ],
      "stateMutability": "view",
      "type": "function"
    },
    {
      "inputs": [
        {
          "internalType": "address",
          "name": "owner",
          "type": "address"
        },
        {
          "internalType": "uint256",
          "name": "index",
          "type": "uint256"
        }
      ],
      "name": "tokenOfOwnerByIndex",
      "outputs": [
        {
          "internalType": "uint256",
          "name": "",
          "type": "uint256"
        }
      ],
      "stateMutability": "view",
      "type": "function"
    },
    {
      "inputs": [
        {
          "internalType": "uint256",
          "name": "tokenId",
          "type": "uint256"
        }
      ],
      "name": "tokenURI",
      "outputs": [
        {
          "internalType": "string",
          "name": "",
          "type": "string"
        }
      ],
      "stateMutability": "view",
      "type": "function"
    },
    {
      "inputs": [],
      "name": "totalSupply",
      "outputs": [
        {
          "internalType": "uint256",
          "name": "",
          "type": "uint256"
        }
      ],
      "stateMutability": "view",
      "type": "function"
    },
    {
      "inputs": [
        {
          "internalType": "address",
          "name": "from",
          "type": "address"
        },
        {
          "internalType": "address",
          "name": "to",
          "type": "address"
        },
        {
          "internalType": "uint256",
          "name": "tokenId",
          "type": "uint256"
        }
      ],
      "name": "transferFrom",
      "outputs": [],
      "stateMutability": "nonpayable",
      "type": "function"
    },
    {
      "inputs": [
        {
          "internalType": "address",
          "name": "newOwner",
          "type": "address"
        }
      ],
      "name": "transferOwnership",
      "outputs": [],
      "stateMutability": "nonpayable",
      "type": "function"
    }
  ],
  "bytecode": "0x60806040523480156200001157600080fd5b506040518060400160405280600581526020017f4d794e46540000000000000000000000000000000000000000000000000000008152506040518060400160405280600481526020017f4d4e465400000000000000000000000000000000000000000000000000000000815250816000908051906020019062000096929190620001a6565b508060019080519060200190620000af929190620001a6565b505050620000d2620000c6620000d860201b60201c565b620000e060201b60201c565b620002bb565b600033905090565b6000600b60009054906101000a900473ffffffffffffffffffffffffffffffffffffffff16905081600b60006101000a81548173ffffffffffffffffffffffffffffffffffffffff021916908373ffffffffffffffffffffffffffffffffffffffff1602179055508173ffffffffffffffffffffffffffffffffffffffff168173ffffffffffffffffffffffffffffffffffffffff167f8be0079c531659141344cd1fd0a4f28419497f9722a3daafe3b4186f6b6457e060405160405180910390a35050565b828054620001b49062000256565b90600052602060002090601f016020900481019282620001d8576000855562000224565b82601f10620001f357805160ff191683800117855562000224565b8280016001018555821562000224579182015b828111156200022357825182559160200191906001019062000206565b5b50905062000233919062000237565b5090565b5b808211156200025257600081600090555060010162000238565b5090565b600060028204905060018216806200026f57607f821691505b602082108114156200028657620002856200028c565b5b50919050565b7f4e487b7100000000000000000000000000000000000000000000000000000000600052602260045260246000fd5b61348680620002cb6000396000f3fe608060405234801561001057600080fd5b506004361061012c5760003560e01c806370a08231116100ad578063b88d4fde11610071578063b88d4fde14610343578063c87b56dd1461035f578063d204c45e1461038f578063e985e9c5146103ab578063f2fde38b146103db5761012c565b806370a08231146102b1578063715018a6146102e15780638da5cb5b146102eb57806395d89b4114610309578063a22cb465146103275761012c565b806323b872dd116100f457806323b872dd146101e95780632f745c591461020557806342842e0e146102355780634f6ccce7146102515780636352211e146102815761012c565b806301ffc9a71461013157806306fdde0314610161578063081812fc1461017f578063095ea7b3146101af57806318160ddd146101cb575b600080fd5b61014b6004803603810190610146919061257f565b6103f7565b6040516101589190612985565b60405180910390f35b610169610409565b60405161017691906129a0565b60405180910390f35b610199600480360381019061019491906125d1565b61049b565b6040516101a6919061291e565b60405180910390f35b6101c960048036038101906101c49190612543565b6104e1565b005b6101d36105f9565b6040516101e09190612bc2565b60405180910390f35b61020360048036038101906101fe91906123e9565b610606565b005b61021f600480360381019061021a9190612543565b610666565b60405161022c9190612bc2565b60405180910390f35b61024f600480360381019061024a91906123e9565b61070b565b005b61026b600480360381019061026691906125d1565b61072b565b6040516102789190612bc2565b60405180910390f35b61029b600480360381019061029691906125d1565b6107c2565b6040516102a8919061291e565b60405180910390f35b6102cb60048036038101906102c69190612384565b610874565b6040516102d89190612bc2565b60405180910390f35b6102e961092c565b005b6102f3610940565b604051610300919061291e565b60405180910390f35b61031161096a565b60405161031e91906129a0565b60405180910390f35b610341600480360381019061033c91906124b3565b6109fc565b005b61035d60048036038101906103589190612438565b610a12565b005b610379600480360381019061037491906125d1565b610a74565b60405161038691906129a0565b60405180910390f35b6103a960048036038101906103a491906124ef565b610a86565b005b6103c560048036038101906103c091906123ad565b610abf565b6040516103d29190612985565b60405180910390f35b6103f560048036038101906103f09190612384565b610b53565b005b600061040282610bd7565b9050919050565b60606000805461041890612e18565b80601f016020809104026020016040519081016040528092919081815260200182805461044490612e18565b80156104915780601f1061046657610100808354040283529160200191610491565b820191906000526020600020905b81548152906001019060200180831161047457829003601f168201915b5050505050905090565b60006104a682610c51565b6004600083815260200190815260200160002060009054906101000a900473ffffffffffffffffffffffffffffffffffffffff169050919050565b60006104ec826107c2565b90508073ffffffffffffffffffffffffffffffffffffffff168373ffffffffffffffffffffffffffffffffffffffff16141561055d576040517f08c379a000000000000000000000000000000000000000000000000000000000815260040161055490612b62565b60405180910390fd5b8073ffffffffffffffffffffffffffffffffffffffff1661057c610c9c565b73ffffffffffffffffffffffffffffffffffffffff1614806105ab57506105aa816105a5610c9c565b610abf565b5b6105ea576040517f08c379a00000000000000000000000000000000000000000000000000000000081526004016105e190612ae2565b60405180910390fd5b6105f48383610ca4565b505050565b6000600880549050905090565b610617610611610c9c565b82610d5d565b610656576040517f08c379a000000000000000000000000000000000000000000000000000000000815260040161064d90612ba2565b60405180910390fd5b610661838383610df2565b505050565b600061067183610874565b82106106b2576040517f08c379a00000000000000000000000000000000000000000000000000000000081526004016106a9906129c2565b60405180910390fd5b600660008473ffffffffffffffffffffffffffffffffffffffff1673ffffffffffffffffffffffffffffffffffffffff168152602001908152602001600020600083815260200190815260200160002054905092915050565b61072683838360405180602001604052806000815250610a12565b505050565b60006107356105f9565b8210610776576040517f08c379a000000000000000000000000000000000000000000000000000000000815260040161076d90612b82565b60405180910390fd5b600882815481106107b0577f4e487b7100000000000000000000000000000000000000000000000000000000600052603260045260246000fd5b90600052602060002001549050919050565b6000806002600084815260200190815260200160002060009054906101000a900473ffffffffffffffffffffffffffffffffffffffff169050600073ffffffffffffffffffffffffffffffffffffffff168173ffffffffffffffffffffffffffffffffffffffff16141561086b576040517f08c379a000000000000000000000000000000000000000000000000000000000815260040161086290612b42565b60405180910390fd5b80915050919050565b60008073ffffffffffffffffffffffffffffffffffffffff168273ffffffffffffffffffffffffffffffffffffffff1614156108e5576040517f08c379a00000000000000000000000000000000000000000000000000000000081526004016108dc90612aa2565b60405180910390fd5b600360008373ffffffffffffffffffffffffffffffffffffffff1673ffffffffffffffffffffffffffffffffffffffff168152602001908152602001600020549050919050565b610934611059565b61093e60006110d7565b565b6000600b60009054906101000a900473ffffffffffffffffffffffffffffffffffffffff16905090565b60606001805461097990612e18565b80601f01602080910402602001604051908101604052809291908181526020018280546109a590612e18565b80156109f25780601f106109c7576101008083540402835291602001916109f2565b820191906000526020600020905b8154815290600101906020018083116109d557829003601f168201915b5050505050905090565b610a0e610a07610c9c565b838361119d565b5050565b610a23610a1d610c9c565b83610d5d565b610a62576040517f08c379a0000000000000000000000000000000000000000000000000000000008152600401610a5990612ba2565b60405180910390fd5b610a6e8484848461130a565b50505050565b6060610a7f82611366565b9050919050565b610a8e611059565b6000610a9a600c611479565b9050610aa6600c611487565b610ab0838261149d565b610aba81836114bb565b505050565b6000600560008473ffffffffffffffffffffffffffffffffffffffff1673ffffffffffffffffffffffffffffffffffffffff16815260200190815260200160002060008373ffffffffffffffffffffffffffffffffffffffff1673ffffffffffffffffffffffffffffffffffffffff16815260200190815260200160002060009054906101000a900460ff16905092915050565b610b5b611059565b600073ffffffffffffffffffffffffffffffffffffffff168173ffffffffffffffffffffffffffffffffffffffff161415610bcb576040517f08c379a0000000000000000000000000000000000000000000000000000000008152600401610bc290612a02565b60405180910390fd5b610bd4816110d7565b50565b60007f780e9d63000000000000000000000000000000000000000000000000000000007bffffffffffffffffffffffffffffffffffffffffffffffffffffffff1916827bffffffffffffffffffffffffffffffffffffffffffffffffffffffff19161480610c4a5750610c498261152f565b5b9050919050565b610c5a81611611565b610c99576040517f08c379a0000000000000000000000000000000000000000000000000000000008152600401610c9090612b42565b60405180910390fd5b50565b600033905090565b816004600083815260200190815260200160002060006101000a81548173ffffffffffffffffffffffffffffffffffffffff021916908373ffffffffffffffffffffffffffffffffffffffff160217905550808273ffffffffffffffffffffffffffffffffffffffff16610d17836107c2565b73ffffffffffffffffffffffffffffffffffffffff167f8c5be1e5ebec7d5bd14f71427d1e84f3dd0314c0f7b2291e5b200ac8c7c3b92560405160405180910390a45050565b600080610d69836107c2565b90508073ffffffffffffffffffffffffffffffffffffffff168473ffffffffffffffffffffffffffffffffffffffff161480610dab5750610daa8185610abf565b5b80610de957508373ffffffffffffffffffffffffffffffffffffffff16610dd18461049b565b73ffffffffffffffffffffffffffffffffffffffff16145b91505092915050565b8273ffffffffffffffffffffffffffffffffffffffff16610e12826107c2565b73ffffffffffffffffffffffffffffffffffffffff1614610e68576040517f08c379a0000000000000000000000000000000000000000000000000000000008152600401610e5f90612a22565b60405180910390fd5b600073ffffffffffffffffffffffffffffffffffffffff168273ffffffffffffffffffffffffffffffffffffffff161415610ed8576040517f08c379a0000000000000000000000000000000000000000000000000000000008152600401610ecf90612a62565b60405180910390fd5b610ee383838361167d565b610eee600082610ca4565b6001600360008573ffffffffffffffffffffffffffffffffffffffff1673ffffffffffffffffffffffffffffffffffffffff1681526020019081526020016000206000828254610f3e9190612d2e565b925050819055506001600360008473ffffffffffffffffffffffffffffffffffffffff1673ffffffffffffffffffffffffffffffffffffffff1681526020019081526020016000206000828254610f959190612ca7565b92505081905550816002600083815260200190815260200160002060006101000a81548173ffffffffffffffffffffffffffffffffffffffff021916908373ffffffffffffffffffffffffffffffffffffffff160217905550808273ffffffffffffffffffffffffffffffffffffffff168473ffffffffffffffffffffffffffffffffffffffff167fddf252ad1be2c89b69c2b068fc378daa952ba7f163c4a11628f55a4df523b3ef60405160405180910390a461105483838361168d565b505050565b611061610c9c565b73ffffffffffffffffffffffffffffffffffffffff1661107f610940565b73ffffffffffffffffffffffffffffffffffffffff16146110d5576040517f08c379a00000000000000000000000000000000000000000000000000000000081526004016110cc90612b22565b60405180910390fd5b565b6000600b60009054906101000a900473ffffffffffffffffffffffffffffffffffffffff16905081600b60006101000a81548173ffffffffffffffffffffffffffffffffffffffff021916908373ffffffffffffffffffffffffffffffffffffffff1602179055508173ffffffffffffffffffffffffffffffffffffffff168173ffffffffffffffffffffffffffffffffffffffff167f8be0079c531659141344cd1fd0a4f28419497f9722a3daafe3b4186f6b6457e060405160405180910390a35050565b8173ffffffffffffffffffffffffffffffffffffffff168373ffffffffffffffffffffffffffffffffffffffff16141561120c576040517f08c379a000000000000000000000000000000000000000000000000000000000815260040161120390612a82565b60405180910390fd5b80600560008573ffffffffffffffffffffffffffffffffffffffff1673ffffffffffffffffffffffffffffffffffffffff16815260200190815260200160002060008473ffffffffffffffffffffffffffffffffffffffff1673ffffffffffffffffffffffffffffffffffffffff16815260200190815260200160002060006101000a81548160ff0219169083151502179055508173ffffffffffffffffffffffffffffffffffffffff168373ffffffffffffffffffffffffffffffffffffffff167f17307eab39ab6107e8899845ad3d59bd9653f200f220920489ca2b5937696c31836040516112fd9190612985565b60405180910390a3505050565b611315848484610df2565b61132184848484611692565b611360576040517f08c379a0000000000000000000000000000000000000000000000000000000008152600401611357906129e2565b60405180910390fd5b50505050565b606061137182610c51565b6000600a6000848152602001908152602001600020805461139190612e18565b80601f01602080910402602001604051908101604052809291908181526020018280546113bd90612e18565b801561140a5780601f106113df5761010080835404028352916020019161140a565b820191906000526020600020905b8154815290600101906020018083116113ed57829003601f168201915b50505050509050600061141b611829565b9050600081511415611431578192505050611474565b60008251111561146657808260405160200161144e9291906128fa565b60405160208183030381529060405292505050611474565b61146f84611840565b925050505b919050565b600081600001549050919050565b6001816000016000828254019250508190555050565b6114b78282604051806020016040528060008152506118a8565b5050565b6114c482611611565b611503576040517f08c379a00000000000000000000000000000000000000000000000000000000081526004016114fa90612ac2565b60405180910390fd5b80600a6000848152602001908152602001600020908051906020019061152a9291906121a8565b505050565b60007f80ac58cd000000000000000000000000000000000000000000000000000000007bffffffffffffffffffffffffffffffffffffffffffffffffffffffff1916827bffffffffffffffffffffffffffffffffffffffffffffffffffffffff191614806115fa57507f5b5e139f000000000000000000000000000000000000000000000000000000007bffffffffffffffffffffffffffffffffffffffffffffffffffffffff1916827bffffffffffffffffffffffffffffffffffffffffffffffffffffffff1916145b8061160a575061160982611903565b5b9050919050565b60008073ffffffffffffffffffffffffffffffffffffffff166002600084815260200190815260200160002060009054906101000a900473ffffffffffffffffffffffffffffffffffffffff1673ffffffffffffffffffffffffffffffffffffffff1614159050919050565b61168883838361196d565b505050565b505050565b60006116b38473ffffffffffffffffffffffffffffffffffffffff16611a81565b1561181c578373ffffffffffffffffffffffffffffffffffffffff1663150b7a026116dc610c9c565b8786866040518563ffffffff1660e01b81526004016116fe9493929190612939565b602060405180830381600087803b15801561171857600080fd5b505af192505050801561174957506040513d601f19601f8201168201806040525081019061174691906125a8565b60015b6117cc573d8060008114611779576040519150601f19603f3d011682016040523d82523d6000602084013e61177e565b606091505b506000815114156117c4576040517f08c379a00000000000000000000000000000000000000000000000000000000081526004016117bb906129e2565b60405180910390fd5b805181602001fd5b63150b7a0260e01b7bffffffffffffffffffffffffffffffffffffffffffffffffffffffff1916817bffffffffffffffffffffffffffffffffffffffffffffffffffffffff191614915050611821565b600190505b949350505050565b606060405180602001604052806000815250905090565b606061184b82610c51565b6000611855611829565b9050600081511161187557604051806020016040528060008152506118a0565b8061187f84611aa4565b6040516020016118909291906128fa565b6040516020818303038152906040525b915050919050565b6118b28383611c51565b6118bf6000848484611692565b6118fe576040517f08c379a00000000000000000000000000000000000000000000000000000000081526004016118f5906129e2565b60405180910390fd5b505050565b60007f01ffc9a7000000000000000000000000000000000000000000000000000000007bffffffffffffffffffffffffffffffffffffffffffffffffffffffff1916827bffffffffffffffffffffffffffffffffffffffffffffffffffffffff1916149050919050565b611978838383611e2b565b600073ffffffffffffffffffffffffffffffffffffffff168373ffffffffffffffffffffffffffffffffffffffff1614156119bb576119b681611e30565b6119fa565b8173ffffffffffffffffffffffffffffffffffffffff168373ffffffffffffffffffffffffffffffffffffffff16146119f9576119f88382611e79565b5b5b600073ffffffffffffffffffffffffffffffffffffffff168273ffffffffffffffffffffffffffffffffffffffff161415611a3d57611a3881611fe6565b611a7c565b8273ffffffffffffffffffffffffffffffffffffffff168273ffffffffffffffffffffffffffffffffffffffff1614611a7b57611a7a8282612129565b5b5b505050565b6000808273ffffffffffffffffffffffffffffffffffffffff163b119050919050565b60606000821415611aec576040518060400160405280600181526020017f30000000000000000000000000000000000000000000000000000000000000008152509050611c4c565b600082905060005b60008214611b1e578080611b0790612e7b565b915050600a82611b179190612cfd565b9150611af4565b60008167ffffffffffffffff811115611b60577f4e487b7100000000000000000000000000000000000000000000000000000000600052604160045260246000fd5b6040519080825280601f01601f191660200182016040528015611b925781602001600182028036833780820191505090505b5090505b60008514611c4557600182611bab9190612d2e565b9150600a85611bba9190612ec4565b6030611bc69190612ca7565b60f81b818381518110611c02577f4e487b7100000000000000000000000000000000000000000000000000000000600052603260045260246000fd5b60200101907effffffffffffffffffffffffffffffffffffffffffffffffffffffffffffff1916908160001a905350600a85611c3e9190612cfd565b9450611b96565b8093505050505b919050565b600073ffffffffffffffffffffffffffffffffffffffff168273ffffffffffffffffffffffffffffffffffffffff161415611cc1576040517f08c379a0000000000000000000000000000000000000000000000000000000008152600401611cb890612b02565b60405180910390fd5b611cca81611611565b15611d0a576040517f08c379a0000000000000000000000000000000000000000000000000000000008152600401611d0190612a42565b60405180910390fd5b611d166000838361167d565b6001600360008473ffffffffffffffffffffffffffffffffffffffff1673ffffffffffffffffffffffffffffffffffffffff1681526020019081526020016000206000828254611d669190612ca7565b92505081905550816002600083815260200190815260200160002060006101000a81548173ffffffffffffffffffffffffffffffffffffffff021916908373ffffffffffffffffffffffffffffffffffffffff160217905550808273ffffffffffffffffffffffffffffffffffffffff16600073ffffffffffffffffffffffffffffffffffffffff167fddf252ad1be2c89b69c2b068fc378daa952ba7f163c4a11628f55a4df523b3ef60405160405180910390a4611e276000838361168d565b5050565b505050565b6008805490506009600083815260200190815260200160002081905550600881908060018154018082558091505060019003906000526020600020016000909190919091505550565b60006001611e8684610874565b611e909190612d2e565b9050600060076000848152602001908152602001600020549050818114611f75576000600660008673ffffffffffffffffffffffffffffffffffffffff1673ffffffffffffffffffffffffffffffffffffffff168152602001908152602001600020600084815260200190815260200160002054905080600660008773ffffffffffffffffffffffffffffffffffffffff1673ffffffffffffffffffffffffffffffffffffffff168152602001908152602001600020600084815260200190815260200160002081905550816007600083815260200190815260200160002081905550505b6007600084815260200190815260200160002060009055600660008573ffffffffffffffffffffffffffffffffffffffff1673ffffffffffffffffffffffffffffffffffffffff16815260200190815260200160002060008381526020019081526020016000206000905550505050565b60006001600880549050611ffa9190612d2e565b9050600060096000848152602001908152602001600020549050600060088381548110612050577f4e487b7100000000000000000000000000000000000000000000000000000000600052603260045260246000fd5b906000526020600020015490508060088381548110612098577f4e487b7100000000000000000000000000000000000000000000000000000000600052603260045260246000fd5b90600052602060002001819055508160096000838152602001908152602001600020819055506009600085815260200190815260200160002060009055600880548061210d577f4e487b7100000000000000000000000000000000000000000000000000000000600052603160045260246000fd5b6001900381819060005260206000200160009055905550505050565b600061213483610874565b905081600660008573ffffffffffffffffffffffffffffffffffffffff1673ffffffffffffffffffffffffffffffffffffffff168152602001908152602001600020600083815260200190815260200160002081905550806007600084815260200190815260200160002081905550505050565b8280546121b490612e18565b90600052602060002090601f0160209004810192826121d6576000855561221d565b82601f106121ef57805160ff191683800117855561221d565b8280016001018555821561221d579182015b8281111561221c578251825591602001919060010190612201565b5b50905061222a919061222e565b5090565b5b8082111561224757600081600090555060010161222f565b5090565b600061225e61225984612c02565b612bdd565b90508281526020810184848401111561227657600080fd5b612281848285612dd6565b509392505050565b600061229c61229784612c33565b612bdd565b9050828152602081018484840111156122b457600080fd5b6122bf848285612dd6565b509392505050565b6000813590506122d6816133f4565b92915050565b6000813590506122eb8161340b565b92915050565b60008135905061230081613422565b92915050565b60008151905061231581613422565b92915050565b600082601f83011261232c57600080fd5b813561233c84826020860161224b565b91505092915050565b600082601f83011261235657600080fd5b8135612366848260208601612289565b91505092915050565b60008135905061237e81613439565b92915050565b60006020828403121561239657600080fd5b60006123a4848285016122c7565b91505092915050565b600080604083850312156123c057600080fd5b60006123ce858286016122c7565b92505060206123df858286016122c7565b9150509250929050565b6000806000606084860312156123fe57600080fd5b600061240c868287016122c7565b935050602061241d868287016122c7565b925050604061242e8682870161236f565b9150509250925092565b6000806000806080858703121561244e57600080fd5b600061245c878288016122c7565b945050602061246d878288016122c7565b935050604061247e8782880161236f565b925050606085013567ffffffffffffffff81111561249b57600080fd5b6124a78782880161231b565b91505092959194509250565b600080604083850312156124c657600080fd5b60006124d4858286016122c7565b92505060206124e5858286016122dc565b9150509250929050565b6000806040838503121561250257600080fd5b6000612510858286016122c7565b925050602083013567ffffffffffffffff81111561252d57600080fd5b61253985828601612345565b9150509250929050565b6000806040838503121561255657600080fd5b6000612564858286016122c7565b92505060206125758582860161236f565b9150509250929050565b60006020828403121561259157600080fd5b600061259f848285016122f1565b91505092915050565b6000602082840312156125ba57600080fd5b60006125c884828501612306565b91505092915050565b6000602082840312156125e357600080fd5b60006125f18482850161236f565b91505092915050565b61260381612d62565b82525050565b61261281612d74565b82525050565b600061262382612c64565b61262d8185612c7a565b935061263d818560208601612de5565b61264681612fb1565b840191505092915050565b600061265c82612c6f565b6126668185612c8b565b9350612676818560208601612de5565b61267f81612fb1565b840191505092915050565b600061269582612c6f565b61269f8185612c9c565b93506126af818560208601612de5565b80840191505092915050565b60006126c8602b83612c8b565b91506126d382612fc2565b604082019050919050565b60006126eb603283612c8b565b91506126f682613011565b604082019050919050565b600061270e602683612c8b565b915061271982613060565b604082019050919050565b6000612731602583612c8b565b915061273c826130af565b604082019050919050565b6000612754601c83612c8b565b915061275f826130fe565b602082019050919050565b6000612777602483612c8b565b915061278282613127565b604082019050919050565b600061279a601983612c8b565b91506127a582613176565b602082019050919050565b60006127bd602983612c8b565b91506127c88261319f565b604082019050919050565b60006127e0602e83612c8b565b91506127eb826131ee565b604082019050919050565b6000612803603e83612c8b565b915061280e8261323d565b604082019050919050565b6000612826602083612c8b565b91506128318261328c565b602082019050919050565b6000612849602083612c8b565b9150612854826132b5565b602082019050919050565b600061286c601883612c8b565b9150612877826132de565b602082019050919050565b600061288f602183612c8b565b915061289a82613307565b604082019050919050565b60006128b2602c83612c8b565b91506128bd82613356565b604082019050919050565b60006128d5602e83612c8b565b91506128e0826133a5565b604082019050919050565b6128f481612dcc565b82525050565b6000612906828561268a565b9150612912828461268a565b91508190509392505050565b600060208201905061293360008301846125fa565b92915050565b600060808201905061294e60008301876125fa565b61295b60208301866125fa565b61296860408301856128eb565b818103606083015261297a8184612618565b905095945050505050565b600060208201905061299a6000830184612609565b92915050565b600060208201905081810360008301526129ba8184612651565b905092915050565b600060208201905081810360008301526129db816126bb565b9050919050565b600060208201905081810360008301526129fb816126de565b9050919050565b60006020820190508181036000830152612a1b81612701565b9050919050565b60006020820190508181036000830152612a3b81612724565b9050919050565b60006020820190508181036000830152612a5b81612747565b9050919050565b60006020820190508181036000830152612a7b8161276a565b9050919050565b60006020820190508181036000830152612a9b8161278d565b9050919050565b60006020820190508181036000830152612abb816127b0565b9050919050565b60006020820190508181036000830152612adb816127d3565b9050919050565b60006020820190508181036000830152612afb816127f6565b9050919050565b60006020820190508181036000830152612b1b81612819565b9050919050565b60006020820190508181036000830152612b3b8161283c565b9050919050565b60006020820190508181036000830152612b5b8161285f565b9050919050565b60006020820190508181036000830152612b7b81612882565b9050919050565b60006020820190508181036000830152612b9b816128a5565b9050919050565b60006020820190508181036000830152612bbb816128c8565b9050919050565b6000602082019050612bd760008301846128eb565b92915050565b6000612be7612bf8565b9050612bf38282612e4a565b919050565b6000604051905090565b600067ffffffffffffffff821115612c1d57612c1c612f82565b5b612c2682612fb1565b9050602081019050919050565b600067ffffffffffffffff821115612c4e57612c4d612f82565b5b612c5782612fb1565b9050602081019050919050565b600081519050919050565b600081519050919050565b600082825260208201905092915050565b600082825260208201905092915050565b600081905092915050565b6000612cb282612dcc565b9150612cbd83612dcc565b9250827fffffffffffffffffffffffffffffffffffffffffffffffffffffffffffffffff03821115612cf257612cf1612ef5565b5b828201905092915050565b6000612d0882612dcc565b9150612d1383612dcc565b925082612d2357612d22612f24565b5b828204905092915050565b6000612d3982612dcc565b9150612d4483612dcc565b925082821015612d5757612d56612ef5565b5b828203905092915050565b6000612d6d82612dac565b9050919050565b60008115159050919050565b60007fffffffff0000000000000000000000000000000000000000000000000000000082169050919050565b600073ffffffffffffffffffffffffffffffffffffffff82169050919050565b6000819050919050565b82818337600083830152505050565b60005b83811015612e03578082015181840152602081019050612de8565b83811115612e12576000848401525b50505050565b60006002820490506001821680612e3057607f821691505b60208210811415612e4457612e43612f53565b5b50919050565b612e5382612fb1565b810181811067ffffffffffffffff82111715612e7257612e71612f82565b5b80604052505050565b6000612e8682612dcc565b91507fffffffffffffffffffffffffffffffffffffffffffffffffffffffffffffffff821415612eb957612eb8612ef5565b5b600182019050919050565b6000612ecf82612dcc565b9150612eda83612dcc565b925082612eea57612ee9612f24565b5b828206905092915050565b7f4e487b7100000000000000000000000000000000000000000000000000000000600052601160045260246000fd5b7f4e487b7100000000000000000000000000000000000000000000000000000000600052601260045260246000fd5b7f4e487b7100000000000000000000000000000000000000000000000000000000600052602260045260246000fd5b7f4e487b7100000000000000000000000000000000000000000000000000000000600052604160045260246000fd5b6000601f19601f8301169050919050565b7f455243373231456e756d657261626c653a206f776e657220696e646578206f7560008201527f74206f6620626f756e6473000000000000000000000000000000000000000000602082015250565b7f4552433732313a207472616e7366657220746f206e6f6e20455243373231526560008201527f63656976657220696d706c656d656e7465720000000000000000000000000000602082015250565b7f4f776e61626c653a206e6577206f776e657220697320746865207a65726f206160008201527f6464726573730000000000000000000000000000000000000000000000000000602082015250565b7f4552433732313a207472616e736665722066726f6d20696e636f72726563742060008201527f6f776e6572000000000000000000000000000000000000000000000000000000602082015250565b7f4552433732313a20746f6b656e20616c7265616479206d696e74656400000000600082015250565b7f4552433732313a207472616e7366657220746f20746865207a65726f2061646460008201527f7265737300000000000000000000000000000000000000000000000000000000602082015250565b7f4552433732313a20617070726f766520746f2063616c6c657200000000000000600082015250565b7f4552433732313a2061646472657373207a65726f206973206e6f74206120766160008201527f6c6964206f776e65720000000000000000000000000000000000000000000000602082015250565b7f45524337323155524953746f726167653a2055524920736574206f66206e6f6e60008201527f6578697374656e7420746f6b656e000000000000000000000000000000000000602082015250565b7f4552433732313a20617070726f76652063616c6c6572206973206e6f7420746f60008201527f6b656e206f776e6572206e6f7220617070726f76656420666f7220616c6c0000602082015250565b7f4552433732313a206d696e7420746f20746865207a65726f2061646472657373600082015250565b7f4f776e61626c653a2063616c6c6572206973206e6f7420746865206f776e6572600082015250565b7f4552433732313a20696e76616c696420746f6b656e2049440000000000000000600082015250565b7f4552433732313a20617070726f76616c20746f2063757272656e74206f776e6560008201527f7200000000000000000000000000000000000000000000000000000000000000602082015250565b7f455243373231456e756d657261626c653a20676c6f62616c20696e646578206f60008201527f7574206f6620626f756e64730000000000000000000000000000000000000000602082015250565b7f4552433732313a2063616c6c6572206973206e6f7420746f6b656e206f776e6560008201527f72206e6f7220617070726f766564000000000000000000000000000000000000602082015250565b6133fd81612d62565b811461340857600080fd5b50565b61341481612d74565b811461341f57600080fd5b50565b61342b81612d80565b811461343657600080fd5b50565b61344281612dcc565b811461344d57600080fd5b5056fea26469706673582212204cb9b9f9a1820d5644e07d2e480b36fb0ca4e669ba89aebbbb41badcd89aeeac64736f6c63430008040033",
  "linkReferences": {},
  "deployedLinkReferences": {}
}